:100000000C94E3020C940B030C940B030C940B0361
:100010000C940B030C940B030C940B030C940B0328
:100020000C940B030C940B030C940B030C940B0318
:100030000C940B030C94410A0C940B030C940B03CB
:100040000C94C9080C940B030C940B030C940B0335
:100050000C940B030C940B030C940B030C940B03E8
:100060000C9413090C940B030000000023002600DD
:10007000290000000008000201000003040700003E
:1000800000000000000000000000240027002A00FB
:10009000010204081020408001020408102001021F
:1000A0000408102000000000250028002B00040494
:1000B0000404040404040202020202020303030310
:1000C000030300000000003E5B4F5B3E3E6B4F6B46
:1000D0003E1C3E7C3E1C183C7E3C181C577D571C29
:1000E0001C5E7F5E1C00183C1800FFE7C3E7FF00A2
:1000F00018241800FFE7DBE7FF30483A060E2629F0
:10010000792926407F050507407F05253F5A3CE7B2
:100110003C5A7F3E1C1C08081C1C3E7F14227F2278
:10012000145F5F005F5F06097F017F006689956A43
:10013000606060606094A2FFA29408047E040810CE
:10014000207E201008082A1C08081C2A08081E10F7
:100150001010100C1E0C1E0C30383E3830060E3EAF
:100160000E06000000000000005F0000000700070E
:1001700000147F147F14242A7F2A12231308646238
:1001800036495620500008070300001C2241000099
:1001900041221C002A1C7F1C2A08083E08080080F7
:1001A000703000080808080800006060002010088F
:1001B00004023E5149453E00427F40007249494990
:1001C000462141494D331814127F102745454539C2
:1001D0003C4A4949314121110907364949493646C6
:1001E0004949291E000014000000403400000008A6
:1001F0001422411414141414004122140802015949
:1002000009063E415D594E7C1211127C7F494949D5
:10021000363E414141227F4141413E7F494949416A
:100220007F090909013E414151737F0808087F0099
:10023000417F41002040413F017F081422417F401F
:100240004040407F021C027F7F0408107F3E4141F6
:10025000413E7F090909063E4151215E7F09192966
:1002600046264949493203017F01033F4040403F50
:100270001F2040201F3F4038403F63140814630391
:10028000047804036159494D43007F414141020410
:10029000081020004141417F040201020440404017
:1002A0004040000307080020545478407F2844440D
:1002B000383844444428384444287F385454541827
:1002C00000087E090218A4A49C787F080404780022
:1002D000447D40002040403D007F10284400004104
:1002E0007F40007C047804787C0804047838444417
:1002F0004438FC1824241818242418FC7C0804040E
:1003000008485454542404043F44243C4040207C76
:100310001C2040201C3C4030403C44281028444CC9
:100320009090907C4464544C440008364100000096
:10033000770000004136080002010204023C262337
:10034000263C1EA1A161123A4040207A38545455EF
:1003500059215555794122545478422155547840B9
:1003600020545579400C1E52721239555555593941
:100370005454545939555454580000457C41000296
:10038000457D420001457C407D1211127DF02825FB
:1003900028F07C545545002054547C547C0A097F35
:1003A0004932494949323A4444443A324A48483049
:1003B0003A4141217A3A42402078009DA0A07D3DFB
:1003C0004242423D3D4040403D3C24FF2424487E83
:1003D0004943662B2FFC2F2BFF0929F620C0887E6E
:1003E000090320545479410000447D413048484A73
:1003F00032384040227A007A0A0A727D0D19317D26
:100400002629292F28262929292630484D402038F9
:100410000808080808080808382F10C8ACBA2F10B8
:100420002834FA00007B000008142A142222142A1F
:1004300014085500550055AA55AA55AAFF55FF5551
:10044000FF000000FF00101010FF00141414FF0044
:100450001010FF00FF1010F010F0141414FC001422
:1004600014F700FF0000FF00FF1414F404FC141440
:1004700017101F10101F101F1414141F001010103D
:10048000F0000000001F101010101F10101010F0CE
:1004900010000000FF101010101010101010FF10AE
:1004A000000000FF140000FF00FF00001F101700F5
:1004B00000FC04F414141710171414F404F40000CE
:1004C000FF00F714141414141414F700F714141480
:1004D000171410101F101F141414F4141010F0101F
:1004E000F000001F101F0000001F14000000FC148B
:1004F0000000F010F01010FF10FF141414FF14107F
:1005000010101F00000000F010FFFFFFFFFFF0F0D1
:10051000F0F0F0FFFFFF0000000000FFFF0F0F0FE3
:100520000F0F3844443844FC4A4A4A347E020206DB
:1005300006027E027E0263554941633844443C040E
:10054000407E201E2006027E020299A5E7A5991C86
:100550002A492A1C4C7201724C304A4D4D303048A9
:10056000784830BC625A463D3E494949007E010107
:10057000017E2A2A2A2A2A44445F444440514A449C
:100580004040444A51400000FF0103E080FF00006A
:1005900008086B6B083612362436060F090F060062
:1005A0000018180000001010003040FF0101001F6B
:1005B00001011E00191D1712003C3C3C3C000000CC
:1005C0000000F617DA1711241FBECFEFD8E0DEBF08
:1005D000CDBF24E0A8EBB3E001C01D92A93CB20757
:1005E000E1F713E0A0E0B1E0EEE4F5E302C005902E
:1005F0000D92A83BB107D9F712E0C2EED2E004C0D9
:100600002197FE010E948818C13ED107C9F70E94B8
:10061000D3120C949A1A0C9400003FB7F89480916E
:10062000040490910504A0910604B091070426B536
:10063000A89B05C02F3F19F00196A11DB11D3FBF1A
:10064000BA2FA92F982F8827820F911DA11DB11DA8
:10065000BC01CD0142E0660F771F881F991F4A95A4
:10066000D1F7089585ED8093BC008091BC0084FD96
:10067000FCCF1092480408954091DE03262F30E00D
:10068000240F311D21323105DCF42091480424303F
:10069000C9F4FC0180E090E0861758F43091DE0345
:1006A0002191DC01A454BC4FA30FB11D2C930196E2
:1006B000F3CF8091DE03680F6093DE0380E008953E
:1006C00081E0089582E00895089581E090E03091FE
:1006D000090420910804321710F480E090E091950D
:1006E00081959109089580910904909108048917D2
:1006F00030F48F5F8093090480E090E008958FEFDD
:100700009FEF08958091080490E020910904821BD6
:1007100091090895CF92DF92EF92FF920F931F936A
:10072000CF93DF937C01262F972F8A018091490474
:10073000882391F0C62FD72F6E01C40ED51ECC157D
:10074000DD0571F06991D701ED91FC910190F08187
:10075000E02DC7010995F3CF642F822F0E943C033F
:10076000C801DF91CF911F910F91FF90EF90DF9023
:10077000CF900895CF93DF931F92CDB7DEB76983F3
:10078000209149042223D1F020916C04203240F0C2
:1007900021E030E0FC013383228380E090E015C04B
:1007A00080914A04E82FF0E0E55BFB4F998190834C
:1007B0008F5F80934A0480936C0405C061E0CE0192
:1007C00001960E943C0381E090E00F90DF91CF9171
:1007D000089508950F931F93CF93DF93DC015596EF
:1007E0008C915597823071F0833009F1813009F096
:1007F0008CC01496ED91FC911597E41BF50BE21B50
:10080000F30B20C01496ED91FC911597CF01861B38
:10081000970BBC01615071091696ED91FC911797E9
:10082000CF01841B950BAC01421B530B6EC0169677
:10083000ED91FC911797CF01861B970BBC0161507E
:100840007109FA0177FD1BC116968D919C9117973E
:10085000681779070CF013C1F7FF04C02E0F3F1F74
:10086000E0E0F0E014968D919C911597AF01420F56
:10087000531F841795071CF49C012E1B3F0B121667
:1008800013060CF0FCC0CB0177FD079643E095956D
:1008900087954A95E1F79695982F8827979587959C
:1008A000E80FF91FEE5FFE4F6770772781E090E059
:1008B00001C0880F6A95EAF7482F0130110541F011
:1008C00088F00230110509F0DAC02E0F3F1F15C065
:1008D0002E0F3F1FE217F30709F4D1C08081842B4C
:1008E0008193F8CF80952E0F3F1FE217F30709F48D
:1008F000C6C0908198239193F8CFE217F30709F4CB
:10090000BEC0808184278193F8CF77FDB8C014964C
:100910008D919C911597681779070CF0B0C057FF1F
:1009200004C0240F351F40E050E016968D919C9135
:100930001797FA01E20FF31F8E179F071CF49C0113
:10094000241B350B121613060CF099C0A22F842F0E
:1009500086958695869590E8899F600D711D112476
:10096000FB01EE5FFE4F4770A9F198E0941B492F01
:1009700050E0EA01C45DDC4F8881291790F4421BE6
:1009800051092FEF30E002C0359527954A95E2F7DF
:1009900082230130110541F068F00230110589F021
:1009A0006EC00130110519F42081822B0CC001307A
:1009B000110520F480952081822305C002301105A5
:1009C00031F4208182278083A91708F458C0A91B1D
:1009D000E058FF4FA83048F10230110559F4EF01FB
:1009E0008A2F988190959883C058DF4F885088301F
:1009F000C0F730C081E00130110509F080E0819539
:100A0000EF019A2F8883C058DF4F98509830D0F765
:100A100088EF8A0F86958695869590E8899FE00DE8
:100A2000F11D1124E058FF4FA770AA2341F1B0E057
:100A3000AC5DBC4F8C910130110529F038F00230CB
:100A40001105D1F01CC09081892B18C08095908130
:100A5000892314C088EF8A0F86958695869590E83D
:100A6000899FE00DF11D1124E058FF4FA77039F068
:100A7000B0E0AC5DBC4F8C91908189278083DF9181
:100A8000CF911F910F9108950F931F93CF93DF93F1
:100A9000DC01FB0155968C915597823081F08330B3
:100AA00019F1813051F514968D919C911597BC01E7
:100AB000641B750BAB0141505109BF0181C01496F5
:100AC0006D917C911597CB018E1B9F0BFC011696A7
:100AD0008D919C911797BC01641B750BAB01415024
:100AE0005109E21BF30B09C016966D917C91179783
:100AF0006E1B7F0B621B730B63C057FD1CC11696E8
:100B00008D919C911797481759070CF014C1F7FF66
:100B100004C02E0F3F1FE0E0F0E014968D919C91F1
:100B20001597BF01620F731F861797071CF49C016E
:100B30002E1B3F0B121613060CF0FDC0CA0157FD09
:100B4000079663E0959587956A95E1F79695982FB6
:100B5000882797958795E80FF91FEE5FFE4F47703E
:100B6000552781E090E001C0880F4A95EAF7482FA9
:100B70000130110541F088F00230110509F0DBC0A9
:100B80002E0F3F1F15C02E0F3F1FE217F30709F46A
:100B9000D2C08081842B8193F8CF80952E0F3F1F88
:100BA000E217F30709F4C7C0908198239193F8CF17
:100BB000E217F30709F4BFC0808184278193F8CF3F
:100BC00057FDB9C014968D919C91159748175907F8
:100BD0000CF0B1C077FF04C0260F371F60E070E053
:100BE00016968D919C911797FB01E20FF31F8E17BC
:100BF0009F071CF49C01261B370B121613060CF0E2
:100C00009AC0A22F862F86958695869590E8899F13
:100C1000400D511D1124FA01EE5FFE4F6770A9F1DE
:100C200098E0961B492F50E0EA01C45DDC4F8881B3
:100C3000291790F4421B51092FEF30E002C035957F
:100C400027954A95E2F782230130110541F068F0BB
:100C50000230110589F06FC00130110519F42081AF
:100C6000822B0CC00130110520F480952081822355
:100C700005C00230110531F4208182278083A91735
:100C800008F459C0A91BE058FF4FA83048F10230C2
:100C9000110559F4EF018A2F988190959883C058D7
:100CA000DF4F88508830C0F731C081E00130110536
:100CB00009F080E08195EF019A2F8883C058DF4FBB
:100CC00098509830D0F788EF8A0F8695869586954C
:100CD00060E8869FE00DF11D1124E058FF4FA770DA
:100CE000AA2349F1B0E0AC5DBC4F8C9101301105F5
:100CF00029F038F002301105D9F01DC09081892B00
:100D000003C0809590818923808315C088EF8A0F66
:100D100086958695869570E8879FE00DF11D1124D4
:100D2000E058FF4FA77039F0B0E0AC5DBC4F8C913C
:100D300090818927E9CFDF91CF911F910F9108957D
:100D4000FC0177FD9AC080859185681779070CF0C2
:100D500094C057FD92C082859385481759070CF0BF
:100D60008CC08589823009F07CC084819581DC014A
:100D7000A61BB70BBD016150710986819781FC01EB
:100D8000E41BF50BAF01415051090AC0813041F419
:100D900084819581841B950BAB01BC016150710965
:100DA0002130310529F008F122303105E1F10895B3
:100DB000FA0157FD3796A3E0F595E795AA95E1F777
:100DC000F695FE2FEE27F795E7956E0F7F1FFB0137
:100DD000EE5FFE4F4770552781E090E001C0880F1D
:100DE0004A95EAF79081892B3AC0FA0157FD379668
:100DF00023E0F595E7952A95E1F7F695FE2FEE2786
:100E0000F795E7956E0F7F1FFB01EE5FFE4F477072
:100E1000552781E090E001C0880F4A95EAF7809558
:100E2000908189231CC0FA0157FD379683E0F59520
:100E3000E7958A95E1F7F695FE2FEE27F795E7956A
:100E40006E0F7F1FFB01EE5FFE4F4770552781E05D
:100E500090E001C0880F4A95EAF790818927808346
:100E60000895833009F092CF86819781861B970B76
:100E7000BA01AC014150510993CF08950895FC0186
:100E80006370658B8481958126813781613039F06B
:100E9000633029F0918780873387228708953187CF
:100EA0002087938782870895AF92BF92CF92EF9267
:100EB000FF920F931F93CF93DF93EC01262F888D22
:100EC000998D009709F040C06A3059F41D861C8640
:100ED0002C898E859F8538E0239F800D911D1124DC
:100EE00041C06D3009F4AAC08E898823C1F03C89C5
:100EF0008C859D8546E0349F800D911D1124488589
:100F00005985481759075CF41D861C868E859F8578
:100F100048E0349F800D911D11249F878E87EA88B9
:100F2000FB88088919894E855F856C857D85CC880D
:100F3000CE010E94170F2C898C859D8536E0239F5A
:100F4000800D911D112442C06A3079F41D861C86E3
:100F50002C89FC013696E4918E859F852E9F800D0D
:100F6000911D11249F878E8769C06D3009F466C07A
:100F7000FC0134963491631708F460C03196E49113
:100F8000E61708F45BC0FC013296A590B490462F9A
:100F900050E0431B510937E0349FB001359F700D7D
:100FA0001124A60EB71EF501329634913196E491C4
:100FB000332311F0E1110DC0F5013496E4912C8931
:100FC0008C859D85E29F800D911D11249D878C87C6
:100FD00035C0F501359644915E89552311F16C8930
:100FE000E32FF0E0E40FF11D47FDFA956E9FD0016D
:100FF0006F9FB00D11244C855D854A0F5B1FE885FE
:10100000F985E417F5076CF41D861C86FC013696FD
:10101000E4918E859F856E9F800D911D11249F8781
:101020008E87EA88FB88088919894E855F856C85DB
:101030007D85CC88CE010E94170FBECF81E090E065
:10104000DF91CF911F910F91FF90EF90CF90BF90C4
:10105000AF900895833081F028F4813099F0823088
:10106000A1F008958730A9F08830B9F08430D1F428
:10107000809180008F7D03C0809180008F77809366
:101080008000089584B58F7702C084B58F7D84BDBC
:1010900008958091B0008F7703C08091B0008F7D5C
:1010A0008093B0000895CF93DF9390E0FC01E05768
:1010B000FF4F2491FC01E255FF4F8491882361F199
:1010C00090E0880F991FFC01EA57FF4FC591D4911A
:1010D000FC01EC55FF4FA591B491611109C09FB778
:1010E000F8948881209582238883EC912E230BC06D
:1010F000623061F49FB7F8943881822F8095832302
:101100008883EC912E2B2C939FBF06C08FB7F89449
:10111000E8812E2B28838FBFDF91CF9108958F9286
:101120009F92AF92BF92CF92DF92EF92FF926B01AC
:101130007C010E940D034B015C01C114D104E10448
:10114000F104F1F00E940D03DC01CB01881999092B
:10115000AA09BB09883E9340A105B10570F321E0BF
:10116000C21AD108E108F10888EE880E83E0981EC3
:10117000A11CB11CC114D104E104F10419F7DDCFA5
:10118000FF90EF90DF90CF90BF90AF909F908F90A7
:1011900008951F920F920FB60F9211242F933F9331
:1011A0008F939F93AF93BF938091B8039091B903AE
:1011B000A091BA03B091BB033091030423E0230F45
:1011C0002D3720F40196A11DB11D05C026E8230F7F
:1011D0000296A11DB11D209303048093B803909340
:1011E000B903A093BA03B093BB0380910404909118
:1011F0000504A0910604B09107040196A11DB11D3C
:101200008093040490930504A0930604B09307040C
:10121000BF91AF919F918F913F912F910F900FBEF2
:101220000F901F9018951F920F920FB60F921124D6
:101230002F933F934F935F936F937F938F939F93DE
:10124000AF93BF93EF93FF938091B900887F80366F
:1012500009F49CC068F5883209F45BC090F48031D1
:1012600009F454C038F4882309F4F6C0883009F42E
:101270004DC0F6C0883109F44CC0803209F45DC01D
:10128000EFC0803409F468C048F4803309F455C0D5
:10129000883309F0E5C080934604D8C0803509F44E
:1012A0004FC0883509F45DC0883409F0D9C0D6C074
:1012B000883909F4C7C0A8F4883709F467C038F43E
:1012C000883609F463C0803709F460C0C9C0883823
:1012D00009F4B8C0803909F45FC0803809F0C0C093
:1012E0005BC0803B09F486C038F4803A09F466C0DC
:1012F000883A09F47FC0B4C0803C09F4A7C0883C98
:1013000009F4A4C0883B09F48AC0AAC080912304D0
:1013100010C09091450480914404981770F5E091B5
:10132000450481E08E0F80934504F0E0EC5DFB4FB7
:1013300080818093BB0085EC86C0809346048EC07C
:10134000E091450481E08E0F809345048091BB00BD
:10135000F0E0EC5DFB4F8083909145048091440464
:101360006EC0E091450481E08E0F8093450480912A
:10137000BB00F0E0EC5DFB4F80838091470481115E
:101380006DC081E08093220484EA61C083E0809391
:10139000480410920204CFCF80910204803208F0FA
:1013A00051C0E091020481E08E0F8093020480918D
:1013B000BB00F0E0EE51FC4F8083BDCF85EC809305
:1013C000BC001092480480910204803230F4E09115
:1013D0000204F0E0EE51FC4F10826091020470E0D4
:1013E000E091E003F091E10382EE93E00995109221
:1013F000020436C084E0809348041092DF03109208
:10140000DE03E091DC03F091DD0309958091DE03BA
:10141000811105C081E08093DE031092BC03E0914E
:10142000DF0381E08E0F8093DF03F0E0E454FC4F94
:1014300080818093BB009091DF038091DE03981739
:1014400008F479CF85E88093BC000AC085EC8093CE
:10145000BC001092480404C0109246040E9432035B
:10146000FF91EF91BF91AF919F918F917F916F917C
:101470005F914F913F912F910F900FBE0F901F9052
:1014800018951F920F920FB60F9211242F933F932E
:101490004F935F936F937F938F939F93AF93BF937C
:1014A000EF93FF93E0910001F09101010995FF9105
:1014B000EF91BF91AF919F918F917F916F915F91CC
:1014C0004F913F912F910F900FBE0F901F90189545
:1014D000FC01F894248135818085823021F4C90192
:1014E0008170992705C0843031F4C9018370992730
:1014F0009583848302C01582148278948085843019
:1015000029F4359527953595279504C0823011F437
:10151000359527958685882329F081859285892FA1
:10152000992702C080E090E037FF03C08095909536
:101530000895232B11F00196089580E090E008951E
:10154000CF92DF92EF92FF920F931F93CF93DF938F
:101550006C017A018B01C0E0D0E0CE15DF0589F087
:10156000D8016D918D01D601ED91FC910190F08132
:10157000E02DC6010995892B11F47E0102C0219648
:10158000ECCFC701DF91CF911F910F91FF90EF90AA
:10159000DF90CF9008950E94851A1F93CF93DF9319
:1015A000282F30E0F901EE58FF4F8491F901E05700
:1015B000FF4FD491F901E255FF4FC491CC23C9F0FC
:1015C000162F81110E942A08EC2FF0E0EE0FFF1F6A
:1015D000EC55FF4FA591B4918FB7F894111105C048
:1015E0009C91ED2FE095E92302C0EC91ED2BEC935B
:1015F0008FBFDF91CF911F9108950F931F93CF93CA
:10160000DF93EC0188819981009729F02A813B8141
:101610002617370788F48B016F5F7F4F0E94BB1935
:10162000009761F0998388831B830A832C813D8115
:10163000232B11F4FC01108281E001C080E0DF91D6
:10164000CF911F910F910895EF92FF920F931F93E7
:10165000CF93DF93EC01198218821B821A821D82BC
:101660001C826115710549F18B01FB01019000207D
:10167000E9F731977F01E61AF70AB7010E94FD0AE0
:101680002881398181110DC02115310519F0C90159
:101690000E942319198218821D821C821B821A82C1
:1016A0000CC0FD82EC82B801C901DF91CF911F917E
:1016B0000F91FF90EF900C94931ADF91CF911F91AF
:1016C0000F91FF90EF900895CF93DF93282F30E094
:1016D000F901EE58FF4F8491F901E057FF4FD49183
:1016E000F901E255FF4FC491CC2391F081110E9482
:1016F0002A08EC2FF0E0EE0FFF1FE859FF4FA591ED
:10170000B491EC91ED2381E090E021F480E002C0FF
:1017100080E090E0DF91CF9108956F927F928F9259
:101720009F92AF92BF92CF92DF92EF92FF920F9370
:101730001F93CF93DF93EC014B015A0169013801EC
:10174000E881F9810284F385E02D0995E881F9812A
:101750000288F389E02D87019601A501B401CE012D
:101760000995E881F981A501460D571D41505109A0
:101770000288F389E02D9601B401CE010995E88134
:10178000F9810088F189E02D9301A501B401CE0112
:101790000995E881F981C80CD91CB601615071091D
:1017A0000088F189E02D9301A501CE010995E8811A
:1017B000F9810688F789E02DCE01DF91CF911F9145
:1017C0000F91FF90EF90DF90CF90BF90AF909F90E0
:1017D0008F907F906F900994CF92DF92EF92FF925B
:1017E0000F931F93CF93DF9300D000D000D0CDB7DD
:1017F000DEB76C01DC01ED91FC916217730789F48F
:10180000041715072CF4942F852FA801092F182FE2
:10181000041B150B98012F5F3F4F048CF58DE02DB5
:1018200012C04017510709F5261737072CF4962FD9
:10183000872FB901292F382F261B370B2F5F3F4FDA
:10184000068CF78DE02D8701C601099526960FB607
:10185000F894DEBF0FBECDBFDF91CF911F910F91E6
:10186000FF90EF90DF90CF9008950284F385E02DF4
:101870002D833E834B835C8369837A830995D601EC
:10188000ED91FC910488F589E02D2D813E814B81FD
:101890005C8169817A81C6010995D601ED91FC913F
:1018A0000688F789E02DC60126960FB6F894DEBFAC
:1018B0000FBECDBFDF91CF911F910F91FF90EF90A1
:1018C000DF90CF900994EF92FF920F931F93DC016A
:1018D000ED91FC9111971A960D911C911B971896FA
:1018E0002D913C91199700A0F1A1E02D7B0140E0E2
:1018F00050E060E070E009951F910F91FF90EF902C
:1019000008954F925F926F927F928F929F92AF92C3
:10191000BF92CF92DF92EF92FF920F931F93CF93DC
:10192000DF9300D0CDB7DEB76C015A013901480111
:10193000DC01ED91FC910284F385E02D69837A83CB
:1019400009956981462E7A81572E640C751CD60143
:10195000ED91FC91461457046CF40088F189E02D58
:1019600087019401A501B201C6010995BFEF4B1A89
:101970005B0AEDCF0688F789E02DC6010F900F9026
:10198000DF91CF911F910F91FF90EF90DF90CF905B
:10199000BF90AF909F908F907F906F905F904F908F
:1019A0000994AF92BF92CF92DF92EF92FF920F9382
:1019B0001F93CF93DF9300D000D0CDB7DEB75C018B
:1019C0006901DC01ED91FC910284F385E02D4B83EC
:1019D0005C8369837A830995D501ED91FC916981D6
:1019E0007A819B012C0D3D1D215031090488F58918
:1019F000E02D78014B815C818A01C5010995D501F3
:101A0000ED91FC910688F789E02DC5010F900F90AC
:101A10000F900F90DF91CF911F910F91FF90EF905A
:101A2000DF90CF90BF90AF900994AF92BF92CF92CA
:101A3000DF92EF92FF920F931F93CF93DF9300D02B
:101A400000D0CDB7DEB75C016901DC01ED91FC91FE
:101A50000284F385E02D4B835C8369837A83099547
:101A6000D501ED91FC914B815C81C40ED51EB1E096
:101A7000CB1AD1080488F589E02D780186016981A7
:101A80007A819B01C5010995D501ED91FC910688EC
:101A9000F789E02DC5010F900F900F900F90DF9107
:101AA000CF911F910F91FF90EF90DF90CF90BF905B
:101AB000AF9009940895EF92FF920F931F93DC016A
:101AC000ED91FC9100A0F1A1E02D09951F910F91DE
:101AD000FF90EF9008950F931F93DC01ED91FC911F
:101AE000068CF78DE02D09951F910F9108950F93A6
:101AF0001F93DC01ED91FC91048CF58DE02D09958F
:101B00001F910F910895DC01ED91FC910084F18506
:101B1000E02D099408952F923F924F925F926F9219
:101B20007F928F929F92AF92BF92CF92DF92EF926D
:101B3000FF920F931F93CF93DF9300D01F92CDB7E7
:101B4000DEB74C017B836A836A0159011701980152
:101B5000241B350B37FF03C0319521953109C50191
:101B60004A815B81841B950B97FF03C091958195FA
:101B7000910951E059838217930714F019820BC021
:101B80009A2D8B2D5801092F182F9A818B81DB827A
:101B9000CA82C92ED82E8A819B81A816B9065CF408
:101BA0009C2D8D2D6801092F182F9A818B81BB8266
:101BB000AA82A92EB82E2501AA81BB814A1A5B0AE6
:101BC00038016C187D0877FE03C071946194710828
:101BD000720157FE03C0BFEFEB1AFB0AF594E794BE
:101BE000C016D1061CF00FEF1FEF1FC001E010E080
:101BF0001CC0D401ED91FC91B9810484F585E02DE0
:101C00009101BB23C1F04A815B81B601C4010995F2
:101C1000E618F708F7FE04C0C00ED11EE40CF51C50
:101C2000EA81FB813196FB83EA834A815B81A416BA
:101C3000B506FCF604C0A6016A817B81E7CF0F9050
:101C40000F900F90DF91CF911F910F91FF90EF9028
:101C5000DF90CF90BF90AF909F908F907F906F90CC
:101C60005F904F903F902F900895089580E090E00E
:101C70000895CF92DF92EF92FF920F931F93CF932D
:101C8000DF93C0910A04D0910B048FB7F894C090F1
:101C9000B803D090B903E090BA03F090BB038FBFB4
:101CA0008E85882359F089859A8502979A87898736
:101CB00089859A8597FF02C01A86198688810E94B5
:101CC000640B2B8130E08217930711F413E001C0FD
:101CD00010E089810E94640B2B8130E0821793070A
:101CE00011F481E018278E819F81811B80FF12C033
:101CF000212F110F330B3F832E832C813D81827066
:101D0000082E000C990B0197820F931F9D838C83E3
:101D100081E001C080E09E85992361F0882351F025
:101D200089859A85883E9B4028F489859A854996BD
:101D30009A8789878A81882309F470C040911E049C
:101D400050911F0460912004709121049701860135
:101D5000041B150B260B370B0A3011052105310525
:101D600008F45CC0C0921E04D0921F04E0922004CC
:101D7000F09221040E94640B2B8130E082179307BC
:101D800081F480911C0490911D04019690931D0490
:101D900080931C048937910520F083E090E09C87B4
:101DA0008B878A810E94640B3B8121E0232730E0EE
:101DB0008217930731F580911C0490911D04892BA3
:101DC000E1F08B859C85039719F484E090E008C0CE
:101DD00080911B04823048F08C3378F486E090E0E8
:101DE0009C878B8710921B0408C08D85811102C0CF
:101DF00081E001C08CE380931B0410921D041092BB
:101E00001C0480911B04882349F0825080931B049A
:101E1000811104C085E090E09C878B87DF91CF9192
:101E20001F910F91FF90EF90DF90CF9008952F9228
:101E30003F924F925F926F927F928F929F92AF925A
:101E4000BF92CF92DF92EF92FF920F931F93CF93A7
:101E5000DF93CDB7DEB76C970FB6F894DEBF0FBE39
:101E6000CDBF9C8F8B8F5B011A011F830E833701BF
:101E7000C982DC0158964D915C91599741155105E5
:101E800009F0E5C018968D919C911997681779070C
:101E90000CF0CAC11A968D919C911B972816390691
:101EA0000CF0C2C18C2C912CFB0136E0C39EE00DDE
:101EB000F11D1124FB87EA871E161F060CF0B4C122
:101EC000C40133E0880F991F3A95E1F79D878C870D
:101ED000820D931D181619060CF0A6C157968C9109
:101EE000811103C0203B08F02F5FAB8DBC8DED91BD
:101EF000FC9111970284F385E02DCD012A8F09957D
:101F00002A8DB5E02B9F90011124F5013596FF87AE
:101F1000EE87BB82AA822501A9014A195B09598B68
:101F2000488BC10108969B8B8A8BE889F989E40D5F
:101F3000F51DEE53FF4F9491988761013D822C82ED
:101F4000A885A0FF13C0AB8DBC8DED91FC91B9812C
:101F5000B13031F40484F585E02D2E813F8116C027
:101F60000684F785E02DEE80FF801AC0EE81FF81A8
:101F70006E167F06F1F0AB8DBC8DED91FC91B981B1
:101F8000B13051F40484F585E02D9301A601B2012E
:101F90008B8D9C8D09950DC00684F785E02D73010E
:101FA000840194014C815D816A817B818B8D9C8D44
:101FB0000995E885E695E887FFEFCF1ADF0A2C81BF
:101FC0003D81280D391D3D832C834A895B89C416C8
:101FD000D50609F0B5CF5FEF451A550A8A819B8176
:101FE000880D991D9B838A83AE85BF854A165B0643
:101FF00009F09BCFEE81FF816E167F0609F4F2C0D7
:10200000EB8DFC8DA081B181F981F13079F4B501BE
:102010006B5F7F4F5096ED91FC915197830128E0C3
:1020200030E0A1018B8D9C8D0995DCC06A857B8594
:10203000681979091E96ED91FC911F9773010C8523
:102040001D859401A1018B8D9C8D0995CBC0FA0152
:1020500034969491329765917491291BCB01B7E026
:102060002B9F800D911D1124FA01259134913B8BFA
:102070002A8BFC01459154915B834A83FC01329683
:10208000C490319654915E87329614913196D490D3
:102090008981823058F0612E012E000C7708AD2D19
:1020A0000D2C000CBB0BB987A88704C019861886B5
:1020B000612C712CAB8DBC8DED91FC91119702843C
:1020C000F385E02DCD010995B9818B2E912C689C6B
:1020D000C001699C900D789C900D1124FC01EA0DC3
:1020E000FB1DFD87EC871C82712C612CE12F110FE9
:1020F000FF0B95012E0F3F1F3B872A87AC0CB11CAD
:10210000A5014E0F5F1F5F8B4E8BC1018D0D911D81
:10211000D7FC9A95998F888F4E85641608F062C017
:10212000862D90E048855985480F591F489D90019C
:10213000499D300D589D300D1124D901A20DB31DBC
:10214000B98BA88BAA84BB844C845D84DC80BA855F
:10215000DB1AE88DF98DE80FF91FFD8BEC8B8D2DC7
:102160008A0D2E893F89A216B306B9F1877061F4F2
:102170008A819B810196EA89FB89AA81BB81EA0F4A
:10218000FB1F74909B838A8377FE20C0AB8DBC8D30
:10219000ED91FC91B981B13061F40484F585E02DB5
:1021A0002E813F814C895D89B5018B8D9C8D099570
:1021B0000DC00684F785E02DEE80FF808401940138
:1021C00048895989B2018B8D9C8D0995770CEFEF69
:1021D000AE1ABE0A480C591CC2CF3C813C0D3C8350
:1021E00063949ACFAB8DBC8DED91FC9111970688CD
:1021F000F789E02DCD016C960FB6F894DEBF0FBEC7
:10220000CDBFDF91CF911F910F91FF90EF90DF90A5
:10221000CF90BF90AF909F908F907F906F905F9086
:102220004F903F902F9009946C960FB6F894DEBFB4
:102230000FBECDBFDF91CF911F910F91FF90EF9017
:10224000DF90CF90BF90AF909F908F907F906F90D6
:102250005F904F903F902F900895809119038823AD
:1022600029F08091170390911803089580911A0323
:10227000882329F080911503909116030895809189
:102280001B03882329F08091130390911403089570
:10229000089590911903992371F0E0911703F0913B
:1022A0001803EE0FFF1FEE5FFC4F282F082E000CC7
:1022B000330B3183208390911A03992371F0E091BD
:1022C0001503F0911603EE0FFF1FEE5FFC4F282F52
:1022D000082E000C330B3183208390911B0399232C
:1022E00069F0E0911303F0911403EE0FFF1FEE5F0E
:1022F000FC4F082E000C990B918380830895EF9278
:10230000FF920F931F93CF93DF9300D000D000D0A4
:10231000CDB7DEB78C01442359F010928A04109295
:10232000890481E090E090938C0480938B040AC030
:1023300081E090E090938A048093890410928C0449
:1023400010928B0410928604109285047093880476
:102350006093870461EA73E0CE0101960E94240B2A
:10236000F80124813581E080F1800D811E81E11426
:10237000F104C1F02115310509F1020F131FB80155
:10238000CE0101960E94FD0A882361F029813A81DD
:102390008D819E81B701820F931F0E94931A1E8325
:1023A0000D830CC089819A81009711F00E94231936
:1023B0001A8219821E821D821C821B824D815E81BF
:1023C00069817A8189E794E00E94A00A89819A81D3
:1023D0000E94231926960FB6F894DEBF0FBECDBF1C
:1023E000DF91CF911F910F91FF90EF900895209171
:1023F0006C0490916B04213208F04AC0809148042B
:102400008111FCCF32E03093480431E0309347042F
:102410003FEF309346041092450420934404ABE40C
:10242000B4E044E254E0FA013E2F341B321718F4B2
:102430003D913193F9CF1092230420912304990FF9
:10244000922B9093230490912204913061F4109286
:102450002204909123049093BB009091BC0093FDC3
:10246000F8CF95EC01C095EE9093BC009091480494
:102470009230E1F3909146049F3F79F080914604B9
:10248000803241F080914604803331F084E005C011
:1024900081E003C082E001C083E010924A04109200
:1024A0006C0410924904089590919A04992339F08C
:1024B0008EBD00000DB407FEFDCF8EB5089528E057
:1024C00030E040E8E0919D04F0919E0450819091AD
:1024D000A404909595239083E0919B04F0919C0433
:1024E0009091A304542F582319F05081952B03C0C9
:1024F0005081909595239083E0919D04F0919E04E6
:1025000050819091A404952B9083469521503109D8
:10251000C9F60895CF93C82F809195048F3F59F144
:10252000E0919F04F091A00480819091A504982BE4
:102530009083E091A104F091A20420819091A604DF
:10254000909592239083E0919F04F091A0042081C4
:102550009091A5049095922390838C2F0E94541201
:10256000E0919F04F091A00490818091A504892BB3
:102570008083CF9108958091930491E090934904D2
:1025800080936B0410924A0410926C0460E08DE614
:1025900094E00E94BA036C2F8DE694E00E94BA0387
:1025A000CF910C94F711CF93DF93CDB7DEB7289777
:1025B0000FB6F894DEBF0FBECDBF789484B58260AD
:1025C00084BD84B5816084BD85B5826085BD85B5D7
:1025D000816085BD80916E00816080936E00109255
:1025E00081008091810082608093810080918100D0
:1025F0008160809381008091800081608093800061
:102600008091B10084608093B1008091B0008160BE
:102610008093B00080917A00846080937A008091EA
:102620007A00826080937A0080917A008160809342
:102630007A0080917A00806880937A001092C100BD
:102640008FE090E00E948E188C018FE0D8018C936F
:102650008EE011968C93119780E112968C931297CD
:1026600013961C92139715961C921E921497179608
:102670001C921E92169781E018968C9318971A96C2
:102680001C921E9219971C961C921E921B971D96C7
:102690008C931D971E968C9362E08FE00E945308E6
:1026A00062E0F80181810E94530862E0D80112962D
:1026B0008C910E945308F80180810E94640BD8011C
:1026C00013962C91139730E08217930731F483E02F
:1026D00090E017969C938E931697F80181810E9443
:1026E000640BD80113962C91139730E0821793074F
:1026F00049F416968D919C911797B1E08B27F801BC
:102700009783868310930B0400930A04D8011E96C6
:102710001C921E971A961C921E92199782E0809323
:1027200094048CE380939304809195048F3F09F483
:10273000BDC061E0809197040E94530861E08091E0
:1027400099040E94530880919904082E000C990B5B
:10275000FC01E255FF4FE491F0E0EE0FFF1FEC5556
:10276000FF4F259134913093A00420939F04FC01E6
:10277000E057FF4FE491E093A50480919704082E61
:10278000000C990BFC01E255FF4FE491F0E0EE0FD5
:10279000FF1FEC55FF4F259134913093A2042093F5
:1027A000A104FC01E057FF4FE491E093A60480915F
:1027B0009A0481113EC061E0809195040E94530803
:1027C00061E0809196040E94530880919604082E3F
:1027D000000C990BFC01E255FF4FE491F0E0EE0F85
:1027E000FF1FEC55FF4F2591349130939E042093A9
:1027F0009D04FC01E057FF4FE491E093A404809115
:102800009504082E000C990BFC01E255FF4FE49152
:10281000F0E0EE0FFF1FEC55FF4F25913491309300
:102820009C0420939B04FC01E057FF4FE491E0934C
:10283000A30480919A04882309F45FC01FB7F89419
:1028400080910C04811127C0E8EBF0E08491EAE963
:10285000F0E09491E82FF0E0EE0FFF1FEA57FF4FF2
:10286000A591B491EC91E92321F461E08AE00E9402
:10287000CD0A61E08AE00E9453088CB580618CBD6E
:102880008CB580648CBD61E08DE00E94530861E0EE
:102890008BE00E94530880910C048F5F80930C049E
:1028A0001FBF80E58CBD81E08DBD27C0109209045B
:1028B0001092080410924A0410926C04109248047A
:1028C00081E0809347041092220461E082E10E943B
:1028D000CD0A61E083E10E94CD0A8091B9008E7F2C
:1028E0008093B9008091B9008D7F8093B90088E40E
:1028F0008093B80085E48093BC008091980487FDA4
:102900001EC061E00E94530861E0809198040E941B
:10291000CD0A61E070E080E090E00E948F0860E006
:10292000809198040E94CD0A6AE070E080E090E017
:102930000E948F0861E0809198040E94CD0A8EEA7F
:102940000E948A1285ED0E948A1280E80E948A12F3
:1029500088EA0E948A128FE10E948A1283ED0E9407
:102960008A1280E00E948A1280E40E948A128DE816
:102970000E948A1284E10E948A1280E20E948A12D6
:1029800080E00E948A1281EA0E948A1288EC0E94EA
:102990008A128AED0E948A1282E00E948A1281E8DD
:1029A0000E948A128FE80E948A1289ED0E948A1280
:1029B00081EF0E948A128BED0E948A1280E40E94AD
:1029C0008A1284EA0E948A1286EA0E948A128EE2A1
:1029D0000E948A128FEA0E948A1280E092E0E2E06E
:1029E000F1E0DF019C011D9221503040E1F780E1D0
:1029F000809381001092800081E080930F0420E496
:102A00003FE130930E0420930D0430938700209310
:102A1000860091E19093810029E33EE0309301012B
:102A20002093000180936F0080910A0490910B0421
:102A30000E94680A9093110480931004EE24E3949A
:102A4000F12C10E2612E712C7DE7272E73E0372EDA
:102A5000E2E0CE2ED12CFCE3AF2EB12CA2E38A2EE5
:102A6000912C81E080938D04A2E0B1E0E0E0F2E0FF
:102A70001D923197E9F7F0928A04E092890410924E
:102A80008C0410928B0470928604609285041092DC
:102A90008804109287044AE050E062E773E089E717
:102AA00094E00E94A00AF0921D03E0921C03409162
:102AB0001903E0911703F0911803EE0FFF1FEE5F6B
:102AC000FC4F60817181CE01019648870E94240BE2
:102AD000488568E070E0CE0101960E947F118981EF
:102AE0009A810E94231940911A03E0911503F091F5
:102AF0001603EE0FFF1FEE5FFC4F60817181CE0168
:102B0000019648870E94240B488560E170E0CE0161
:102B100001960E947F1189819A810E942319409118
:102B20001B03E0911303F0911403EE0FFF1FEE5F00
:102B3000FC4F60817181CE01019648870E94240B71
:102B4000488568E170E0CE0101960E947F1189817D
:102B50009A810E94231981E20E948A1280E00E94D9
:102B60008A128FE70E948A1282E20E948A1280E013
:102B70000E948A1283E00E948A12809195048F3FFE
:102B800089F1E0919F04F091A00490818091A504C7
:102B9000892B8083E091A104F091A204908180911F
:102BA000A604892B8083E0919F04F091A00490817A
:102BB0008091A50480958923808302E011E0D801EB
:102BC0008D918D010E945412B3E002301B07B9F7BA
:102BD000E0919F04F091A00490818091A504892B3D
:102BE000808334C02091B8002F838CE08093B8009C
:102BF00002E011E08091930431E030934904809326
:102C00006B0410924A0410926C0460E48DE694E028
:102C10000E94BA03412C512CF801E40DF51D60818E
:102C20008DE694E00E94BA038FEF481A580A90E1AB
:102C30004916510489F70E94F711005F1F4FA3E066
:102C400002301A07B9F62F812093B80000910A04C8
:102C500010910B04C8010E94680A2091120430915F
:102C60001304820F931F909313048093120497FD13
:102C7000019695958795209110043091110428179D
:102C8000390744F4909311048093100481E08093F9
:102C900014040AC0821793076CF490931104809374
:102CA000100481E08093190466E970E080E090E010
:102CB0000E948F08D8011B968D919C911C971B96A2
:102CC0002D913C911C972330310521F01C961C92CC
:102CD0001E921B97009729F0059719F481E08093C5
:102CE0001A0480911904882309F487C080911C0379
:102CF00090911D038130910509F047C0109219048D
:102D00009091190380911A03992341F0811106C013
:102D10001092190381E080931A036FC0882309F48D
:102D20006CC080911B03811168C010921A0381E06E
:102D300080931B03809117039091180301968D30A7
:102D4000910514F080E090E09093180380931703AE
:102D5000809115039091160301968D30910514F022
:102D600080E090E090931603809315038091130305
:102D70009091140301968D30910514F080E090E05D
:102D8000909314038093130338C00297B1F5109207
:102D900019040E942D1181309105E1F064F4892B12
:102DA00061F58091110390911203019790931203A2
:102DB0008093110322C082309105B1F00397E9F4AA
:102DC00080911504909116040197909316048093B6
:102DD000150413C080910F039091100301979093F5
:102DE000100380930F0309C0809117049091180479
:102DF00001979093180480931704809114048823FA
:102E000009F44BC080911C0390911D03019709F0B8
:102E100044C01092140480911A0381110AC0909149
:102E20001B03992331F010921B0381E080931A0356
:102E300074C090911903911170C0882309F46DC07A
:102E400010921A0381E080931903809117039091E7
:102E50001803019797FF02C08CE090E0909318034D
:102E6000809317038091150390911603019797FFA4
:102E700002C08CE090E0909316038093150380913C
:102E8000130390911403019797FF02C08CE090E028
:102E9000909314038093130340C0809119048823F6
:102EA000E1F180911C0390911D030297B1F51092FE
:102EB00019040E942D1181309105E1F064F4892BF1
:102EC00061F5809111039091120301969093120382
:102ED0008093110322C082309105B1F00397E9F489
:102EE0008091150490911604019690931604809396
:102EF000150413C080910F039091100301969093D5
:102F0000100380930F0309C0809117049091180457
:102F10000196909318048093170480911A048823D3
:102F200009F440C010921A0480911C0390911D0373
:102F30008130910589F50E942D1184309105B1F001
:102F4000059729F5B0921203A092110390921003F5
:102F500080920F0310921804109217041092160416
:102F60001092150481E080930E031CC080910E0323
:102F7000882321F010920E03822D06C081E08093F9
:102F80000E03E7E8F3E08E2F0E9449110BC0D092A8
:102F90001D03C0921C0306C0029721F4F0921D038A
:102FA000E0921C0380E090E0892B09F45ACD0E9446
:102FB00000004ACDCF93DF93C7EAD4E08E819F8192
:102FC0000E942319888199810E942319C3EBD4E0C0
:102FD0008C859D850E9423198E819F810E942319D3
:102FE00088819981DF91CF910C942319EDE6F4E06B
:102FF0001382128288EE93E0A0E0B0E08483958390
:10300000A683B78388E393E09183808364EA73E0C7
:1030100083EB94E00E94240B67EA73E089EB94E071
:103020000E94240B6AEA73E08FEB94E00E94240B69
:103030006DEA73E087EA94E00E94240B62EB73E090
:103040008DEA94E00E94240BE9E7F4E013821282F7
:1030500020E830E03583248380E290E09783868304
:103060003187208793878287158A1586148617866D
:10307000168681E0848B2FEF3FEF338B228B318BD1
:10308000208B868B178A118E108E8AE493E09183B1
:1030900080838FEF848F80A3868F858F84E0878FD6
:1030A00008952F923F924F925F926F927F928F92EC
:1030B0009F92AF92BF92CF92DF92EF92FF920F93C7
:1030C0001F93CF93DF93CDB7DEB7CA1BDB0B0FB6D1
:1030D000F894DEBF0FBECDBF09942A88398848888E
:1030E0005F846E847D848C849B84AA84B984C88424
:1030F000DF80EE80FD800C811B81AA81B981CE0F1B
:10310000D11D0FB6F894DEBF0FBECDBFED010895FF
:10311000EE0FFF1F0590F491E02D0994CF93DF93FC
:103120008230910510F482E090E0E091C704F091C4
:10313000C80420E030E0C0E0D0E0309711F14081D9
:10314000518148175907C0F04817590761F4828127
:103150009381209719F09B838A832BC09093C80496
:103160008093C70426C02115310519F04217530773
:1031700018F49A01BE01DF01EF010280F381E02D16
:10318000DCCF2115310509F1281B390B243031051D
:1031900090F412968D919C9113976115710521F011
:1031A000FB019383828304C09093C8048093C70477
:1031B000FD01329644C0FD01E20FF31F819391930C
:1031C000225031092D933C933AC02091C50430918F
:1031D000C604232B41F42091200330912103309326
:1031E000C6042093C50420911E0330911F032115AE
:1031F000310541F42DB73EB740912203509123038E
:10320000241B350BE091C504F091C604E217F307C7
:10321000A0F42E1B3F0B2817390778F0AC014E5F46
:103220005F4F2417350748F04E0F5F1F5093C604B9
:103230004093C5048193919302C0E0E0F0E0CF0198
:10324000DF91CF9108950F931F93CF93DF93009752
:1032500009F48CC0FC013297138212820091C704DA
:103260001091C8040115110581F420813181820F6C
:10327000931F2091C5043091C6042817390779F5AA
:10328000F093C604E093C50471C0D80140E050E05B
:10329000AE17BF0750F412962D913C911397AD01D4
:1032A0002115310509F1D901F3CF9D01DA013383ED
:1032B000228360817181860F971F8217930769F4BB
:1032C000EC0128813981260F371F2E5F3F4F318354
:1032D00020838A819B8193838283452B29F4F093F9
:1032E000C804E093C70442C01396FC93EE93129770
:1032F000ED01499159919E01240F351FE217F30703
:1033000071F480819181840F951F029611969C9390
:103310008E938281938113969C938E931297E0E013
:10332000F0E0D80112968D919C911397009719F0B7
:10333000F8018C01F6CF8D919C9198012E5F3F4F43
:10334000820F931F2091C5043091C60428173907B6
:1033500069F4309729F41092C8041092C70402C08F
:10336000138212821093C6040093C504DF91CF919B
:103370001F910F910895A0E0B0E0E1ECF9E10C9409
:103380005518EC01009721F4CB010E948E18B8C0AB
:10339000FC01E60FF71F9C0122503109E217F307E9
:1033A00008F4ACC0D9010D911C91119706171707AD
:1033B000B0F00530110508F49FC0C80104978617C6
:1033C000970708F499C002501109061B170B0193C7
:1033D00011936D937C93CF010E9423198DC05B01E3
:1033E000A01AB10A4C01800E911EA091C704B091A1
:1033F000C80440E050E0E12CF12C109709F44AC0D9
:10340000A815B905D1F56D907C901197630182E004
:10341000C80ED11CCA14DB0480F1A3014A195B0950
:103420006A0182E0C80ED11C1296BC9012971396C6
:10343000AC91B5E0CB16D10440F0B282A3835183A6
:103440004083D9016D937C930AC00E5F1F4FC30167
:10345000800F911FF90191838083EB2DFA2FE114E6
:10346000F10431F0D7011396FC93EE93129744C008
:10347000F093C804E093C7043FC08D919C911197CD
:103480004817590708F4AC017D0112960D90BC91C4
:10349000A02DB3CF8091C5049091C60488159905DD
:1034A000E1F446175707C8F480911E0390911F035B
:1034B000009741F48DB79EB74091220350912303AA
:1034C000841B950BE817F907C8F4F093C604E09342
:1034D000C504F901718360830FC0CB010E948E186F
:1034E0007C01009759F0A801BE010E948A1ACE0102
:1034F0000E942319C70104C0CE0102C080E090E001
:10350000CDB7DEB7EEE00C94711881E090E0F8944E
:103510000C949A1AFB01DC0102C001900D924150FB
:103520005040D8F70895FB01DC0101900D92002076
:10353000E1F7089512E0C2EED2E004C0FE010E945D
:0E35400088182196C33ED107C9F7F894FFCF33
:10354E00E903000000000000000000000000000081
:10355E00000000000000000000000000000000005D
:10356E00000000000000000000000000000000004D
:10357E00000000000000000000000000000000003D
:10358E0000808080000000000000000000000000AD
:10359E000000008080C0C00000000000000000009D
:1035AE00000000000000000000000000000000000D
:1035BE0000000000000000000000000000000000FD
:1035CE0000000000000000000000000000000000ED
:1035DE0000000000000080C0E0F0F8FCF8E0000001
:1035EE00000000000000000000000000000000804D
:1035FE00808080800080800000000080808080803D
:10360E0000FFFFFF000000008080808000008080AF
:10361E00000080FFFF80800080800080808080001E
:10362E0080800000000000808000008C8E840000EE
:10363E0080F8F8F880000000000000000000000094
:10364E000000F0F0F0F0F0F0F0F0F0F0F0F0E0E06C
:10365E00C08000E0FCFEFFFFFF7FFFFFFFFFFF00CB
:10366E0000000000000000000000000000FEFFC788
:10367E000101010183FFFF00007CFEC70101010172
:10368E0083FFFFFF0038FEC78301010183C7FFFFE1
:10369E00000001FFFF010100FFFF07010101000013
:1036AE007FFF80000000FFFF7F0000FFFFFF000094
:1036BE0001FFFFFF010000000000000000000000FD
:1036CE000000030F3F7F7FFFFFFFFFFFFFFFE7C7F6
:1036DE00C78F8F9FBFFFFFC3C0F0FFFFFFFFFFFC31
:1036EE00FCFCFCFCFCFCFCF8F8F0F0E0C000010374
:1036FE00030303030103030000000001030303039C
:10370E000101030100000001030303030101030390
:10371E00000000030300000003030000000000008F
:10372E000001030303030301000000010301000075
:10373E000003030100000000000000000000000074
:10374E000000770392039B039D039F0399030132AD
:10375E00003C000300020001000100000100000017
:10376E00C9048000000103070F1F3F7F0080C0E0E7
:10377E00F0F8FCFE00000000BA038A03360E640364
:10378E00820373036503000000005407A00A360E7F
:10379E00350EA0068A0D830D5B0D770D6B0D8B0D0F
:1037AE005A0D3F073E07EA034405810C630CEC0BF0
:1037BE008D0B4D74473A204D6F6D6972004C6967E1
:1037CE0068743A204F4E004C696768743A204F4631
:1037DE0046005374616E646172640061006200633E
:1037EE0000952000454E00455300454C0045415381
:0837FE0059004841524400004B
:00000001FF
