:100000000C944C050C9474050C9474050C947405B4
:100010000C9474050C9474050C9474050C9474057C
:100020000C9474050C9474050C9474050C9474056C
:100030000C9474050C943C0E0C9474050C9474058B
:100040000C94D4100C9474050C940A0E0C94E40DCA
:100050000C9474050C9474050C9474050C9474053C
:100060000C949B0E0C947405DB40A4A62EAFDA0210
:1000700081DA1281DA02818F2000A1C8D300408D7D
:10008000AED580A800006000000000000000000065
:100090000000000000E00000000000000000000080
:1000A00000000001E000000000000000000000006F
:1000B000000001F00000000000000000000000004F
:1000C0000003F0000000000000000000000000003D
:1000D00007F0000000000000000000000000000722
:1000E000F8000000000000000000000000000FF811
:1000F00000000003C0007E000001E0007F0FF80058
:10010000000003C000FE000001E000FFEFF8000067
:100110000003C000FE000001E000FFFFF800000047
:1001200003C000F00000000F007FFE7FC00000034E
:10013000C000F00000000F003FFE7FF83FF1FBCF52
:10014000FCFEF3BC3DEFE01FFE7FFF7FFBFFDFFE09
:10015000FEFFBC3DEFE01FC6FFFF7FFBFFDFFEFEA3
:10016000FFBC3DEFE00FE3C7FE787BC3DE1EF0FF70
:10017000BC3DEF0007FF87FC787BC3DE1EF0F83C38
:100180003DEF0001FFFFF0007BC3C01EF0F03C3DDF
:10019000EF0001F37FE03FFBC3CFFEF0F03C3DEF0B
:1001A0000003E33F807FFBC3DFFEF0F03C3DEF0048
:1001B00007E73C00787BC3DE1EF0F03C3DEF000714
:1001C000FFBE00787BC3DE1EF0F03C3DEF0007FF72
:1001D000FE00787BC3DE1EF0F03C3DEF000FFFFE1B
:1001E000007FFBFFDFFEF0F03FFDEFE00FFFFF00C1
:1001F0007FFBFFDFFEF0F03FFDEFE00FF9FF003E79
:1002000079F9CF9EF0F01F3DE7E01FF1FF000000FD
:100210000000000000000000001F80FF007FFFFFC3
:10022000FFFFFFFFFFFFFFE01C007F007FFFFFFFDE
:10023000FEB46D888D18E000001F007FFFFFFFFEF9
:1002400095AD7DB577E000000F007FFFFFFFFEA5B5
:10025000AD9D8D19E0000006007FFFFFFFFEB5ADEC
:10026000EDB57EE00000000000018000000000000D
:1002700000000000038000000000000000000007F4
:10028000C000000000000000000007C000000000E7
:1002900000000000000FC00000000000000000008F
:1002A0001FE00000000000000000001FE000000050
:1002B0000000000000003FE000000000000000001F
:1002C000003FF00000000000000000007FF0000090
:1002D00000000000001FF87FF00000000000000098
:1002E0003FFE7FF0000000000000003FFF7FF000B5
:1002F0000000000000001FFFFBE000000000000005
:10030000000FFFF9FFC00000000000000FFFF9FF21
:10031000F800000000000007FFF1FFFF00000000F0
:10032000000003FC73FFFF80000000000001FE3F9F
:10033000FFFF80000000000000FF1E0FFF00000014
:10034000000000007FFE1FFC000000000000003FD6
:10035000FFFFF8000000000000000FDFFFE00000DA
:1003600000000000001F19FFC00000000000000096
:100370003F3CFF00000000000000007E7CF8000011
:100380000000000000007FFE7C0000000000000074
:1003900000FFFFFC0000000000000000FFFFFE0067
:1003A00000000000000000FFFFFE00000000000051
:1003B0000001FFEFFE0000000000000001FFCFFE83
:1003C0000000000000000003FF07FE000000000026
:1003D000000003FC07FE0000000000000003F00323
:1003E000FE00000000000000018000FE0000000090
:1003F0000000000000007E0000000000000000007F
:10040000003E000000000000000000000C000000A2
:10041000000000078000FC000003C000000007800F
:1004200001FC000003C0000000078001FC00000385
:10043000C0000000078001E00000001E000000076F
:100440008001E00000001E007FE3F79FF9FDE778E0
:100450007BDFC0FFF7FFBFFDFDFF787BDFC0FFF74D
:10046000FFBFFDFDFF787BDFC0F0F787BC3DE1FFFC
:10047000787BDE00F0F787BC3DE1F0787BDE0000A2
:10048000F787803DE1E0787BDE007FF7879FFDE125
:10049000E0787BDE00FFF787BFFDE1E0787BDE00E0
:1004A000F0F787BC3DE1E0787BDE00F0F787BC3DEC
:1004B000E1E0787BDE00F0F787BC3DE1E0787BDEB1
:1004C00000FFF7FFBFFDE1E07FFBDFC0FFF7FFBFED
:1004D000FDE1E07FFBDFC07CF3F39F3DE1E03E7B8D
:1004E000CFC00000000000000000000000FFFFFF80
:1004F000FFFFFFFFFFFFFFC0FFFFFFFFFD68DB11F6
:100500001A31C0FFFFFFFFFD2B5AFB6AEFC0FFFF50
:10051000FFFFFD4B5B3B1A33C0FFFFFFFFFD6B5B33
:10052000DB6AFDC000000000240027002A00000054
:100530000000250028002B000000000023002600FA
:100540002900040404040404040402020202020256
:100550000303030303030102040810204080010287
:100560000408102001020408102000000008000206
:10057000010000030407000000000000000000006C
:100580000000003E5B4F5B3E3E6B4F6B3E1C3E7C73
:100590003E1C183C7E3C181C577D571C1C5E7F5E21
:1005A0001C00183C1800FFE7C3E7FF0018241800E0
:1005B000FFE7DBE7FF30483A060E26297929264077
:1005C0007F050507407F05253F5A3CE73C5A7F3EA3
:1005D0001C1C08081C1C3E7F14227F22145F5F0035
:1005E0005F5F06097F017F006689956A60606060D1
:1005F0006094A2FFA29408047E040810207E2010BC
:1006000008082A1C08081C2A08081E101010100CC4
:100610001E0C1E0C30383E3830060E3E0E06000012
:1006200000000000005F00000007000700147F14B6
:100630007F14242A7F2A1223130864623649562025
:10064000500008070300001C2241000041221C004A
:100650002A1C7F1C2A08083E080800807030000809
:1006600008080808000060600020100804023E51DD
:1006700049453E00427F400072494949462141496F
:100680004D331814127F1027454545393C4A4949D6
:100690003141211109073649494936464949291E40
:1006A000000014000000403400000008142241142F
:1006B00014141414004122140802015909063E4181
:1006C0005D594E7C1211127C7F494949363E4141A9
:1006D00041227F4141413E7F494949417F09090902
:1006E000013E414151737F0808087F00417F41006E
:1006F0002040413F017F081422417F404040407F1D
:10070000021C027F7F0408107F3E4141413E7F0969
:100710000909063E4151215E7F09192946264949AA
:10072000493203017F01033F4040403F1F204020EA
:100730001F3F4038403F63140814630304780403E8
:100740006159494D43007F41414102040810200096
:100750004141417F04020102044040404040000307
:1007600007080020545478407F28444438384444D3
:100770004428384444287F385454541800087E09CB
:100780000218A4A49C787F0804047800447D4000EB
:100790002040403D007F1028440000417F40007C05
:1007A000047804787C080404783844444438FC18FD
:1007B00024241818242418FC7C08040408485454E1
:1007C000542404043F44243C4040207C1C2040200E
:1007D0001C3C4030403C44281028444C9090907C75
:1007E0004464544C44000836410000007700000087
:1007F0004136080002010204023C2623263C1EA1C9
:10080000A161123A4040207A385454555921555527
:1008100079412254547842215554784020545579D6
:10082000400C1E5272123955555559395454545969
:1008300039555454580000457C410002457D420022
:1008400001457C407D1211127DF0282528F07C5452
:100850005545002054547C547C0A097F493249494B
:1008600049323A4444443A324A4848303A414121B4
:100870007A3A42402078009DA0A07D3D4242423D10
:100880003D4040403D3C24FF2424487E4943662BA4
:100890002FFC2F2BFF0929F620C0887E0903205446
:1008A0005479410000447D413048484A3238404044
:1008B000227A007A0A0A727D0D19317D2629292FA4
:1008C00028262929292630484D40203808080808BC
:1008D00008080808382F10C8ACBA2F102834FA00BE
:1008E000007B000008142A142222142A1408550040
:1008F000550055AA55AA55AAFF55FF55FF000000FF
:10090000FF00101010FF00141414FF001010FF005F
:10091000FF1010F010F0141414FC001414F700FF72
:100920000000FF00FF1414F404FC141417101F102F
:10093000101F101F1414141F00101010F0000000DE
:10094000001F101010101F10101010F010000000E9
:10095000FF101010101010101010FF10000000FFFA
:10096000140000FF00FF00001F10170000FC04F43B
:1009700014141710171414F404F40000FF00F714F3
:10098000141414141414F700F7141414171410107A
:100990001F101F141414F4141010F010F000001F96
:1009A000101F0000001F14000000FC140000F010D5
:1009B000F01010FF10FF141414FF141010101F007B
:1009C000000000F010FFFFFFFFFFF0F0F0F0F0FF7D
:1009D000FFFF0000000000FFFF0F0F0F0F0F384454
:1009E000443844FC4A4A4A347E02020606027E0229
:1009F0007E0263554941633844443C04407E201ED6
:100A00002006027E020299A5E7A5991C2A492A1C04
:100A10004C7201724C304A4D4D303048784830BCF1
:100A2000625A463D3E494949007E0101017E2A2A1B
:100A30002A2A2A44445F444440514A444040444A9C
:100A400051400000FF0103E080FF000008086B6BCD
:100A5000083612362436060F090F06000018180053
:100A600000001010003040FF0101001F01011E00B6
:100A7000191D1712003C3C3C3C0000000000000126
:100A800003070F1F3F7F0080C0E0F0F8FCFE22004C
:100A9000FF210000FE20CA1911241FBECFEFD8E0AD
:100AA000DEBFCDBF11E0A0E0B1E0E4E1FAE402C0B6
:100AB00005900D92A23FB107D9F723E0A2EFB1E074
:100AC00001C01D92AF3FB207E1F715E0CBE4D5E0DE
:100AD00004C02197FE010E94F422CA34D107C9F74D
:100AE0000E94FF190C94FD240C940000CF92DF9219
:100AF000EF92FF920F931F93CF93DF936C017A01D4
:100B00008B01C0E0D0E0CE15DF0581F0D8016D91FA
:100B10008D01D601ED91FC910190F081E02DC6018F
:100B20000995892B11F02196EECF7E01C701DF9147
:100B3000CF911F910F91FF90EF90DF90CF9008958C
:100B4000FC01538D448D252F30E0842F90E0821BD3
:100B5000930B541710F0CF96089501970895FC0158
:100B6000918D828D981761F0828DDF01A80FB11DE4
:100B70005D968C91928D9F5F9F73928F90E0089508
:100B80008FEF9FEF0895FC01918D828D981731F0C2
:100B9000828DE80FF11D858D90E008958FEF9FEF16
:100BA0000895FC01918D228D892F90E0805C9F4FEC
:100BB000821B91098F73992708958CEC92E00E9413
:100BC000D10521E0892B09F420E0822F0895FC0152
:100BD000848DDF01A80FB11DA35ABF4F2C91848DC6
:100BE00090E001968F739927848FA689B7892C93FB
:100BF000A089B1898C91837080648C93938D848D4E
:100C0000981306C00288F389E02D80818F7D808350
:100C10000895EF92FF920F931F93CF93DF93EC0110
:100C200081E0888F9B8D8C8D981305C0E889F989A8
:100C3000808185FD26C0F62E0B8D10E00F5F1F4FC3
:100C40000F731127E02E8C8DE8120CC00FB607FC35
:100C5000FACFE889F989808185FFF5CFCE010E941E
:100C6000E705F1CF8B8DFE01E80FF11DE35AFF4F31
:100C7000F0829FB7F8940B8FEA89FB8980818062AC
:100C80000AC09FB7F894EE89FF896083E889F989E3
:100C900080818370806480839FBF81E090E0DF91DA
:100CA000CF911F910F91FF90EF900895CF93DF9315
:100CB000EC01888D8823C9F0EA89FB89808185FD54
:100CC00005C0A889B9898C9186FD0FC00FB607FCB5
:100CD000F5CF808185FFF2CFA889B9898C9185FFF6
:100CE000EDCFCE010E94E705E7CFDF91CF910895C8
:100CF00080E090E0892B29F00E94DD0581110C94A1
:100D000000000895089585ED8093BC008091BC009B
:100D100084FDFCCF1092A702089540913902262F3E
:100D200030E0240F311D21323105DCF42091A7027F
:100D30002430C9F4FC0180E090E0861758F430912B
:100D400039022191DC01A75EBD4FA30FB11D2C9389
:100D50000196F3CF80913902680F6093390280E0E9
:100D6000089581E0089582E0089508950895089512
:100D7000E091610280916002E81730F4F0E0E75002
:100D8000FE4F808190E008958FEF9FEF089590913E
:100D9000610280916002981750F4E92FF0E0E7506B
:100DA000FE4F208130E09F5F9093610202C02FEFE1
:100DB0003FEFC90108958091600290E020916102A7
:100DC000821B91090895CF92DF92EF92FF920F93C9
:100DD0001F93CF93DF937C01CB018A012091A8025E
:100DE000222389F0EB016B01C40ED51ECC15DD0565
:100DF00069F06991D701ED91FC910190F081E02DAE
:100E0000C7010995F3CF642F0E948D06C801DF91B9
:100E1000CF911F910F91FF90EF90DF90CF900895A9
:100E2000CF93DF931F92CDB7DEB769832091A802DD
:100E30002223D1F02091CB02203240F021E030E09B
:100E4000FC013383228380E090E015C08091A902E9
:100E5000E82FF0E0E655FD4F998190838F5F8093F6
:100E6000A9028093CB0205C061E0CE0101960E94E9
:100E70008D0681E090E00F90DF91CF910895FC0105
:100E800077FDB9C080859185681779070CF0B3C0EC
:100E900057FDB1C082859385481759070CF0089516
:100EA0008589823079F484819581DC01A61BB70B9A
:100EB000BD016150710986819781DC01A41BB50BCE
:100EC000AD010EC0833009F084C064277527CA01C4
:100ED000862797276827792746815781481B590B12
:100EE000415051092130310531F048F122303105AE
:100EF00009F44AC00895CA0157FD07969C01A3E072
:100F000035952795AA95E1F7A481B5812A9FC0015F
:100F10002B9F900D3A9F900D1124680F791F068C1E
:100F2000F78DE02DE60FF71F4770552781E090E021
:100F300001C0880F4A95EAF79081892B48C0CA0101
:100F400057FD07969C0193E0359527959A95E1F713
:100F5000A481B5812A9FC0012B9F900D3A9F900DCF
:100F60001124680F791F068CF78DE02DE60FF71F0F
:100F70004770552781E090E001C0880F4A95EAF755
:100F800080959081892323C0CA0157FD07969C0153
:100F900083E0359527958A95E1F7A481B5812A9F4D
:100FA000C0012B9F900D3A9F900D1124680F791F5F
:100FB000068CF78DE02DE60FF71F4770552781E06F
:100FC00090E001C0880F4A95EAF7908189278083D5
:100FD0000895813009F086CF642775274627572763
:100FE0006427752784819581DC01A61BB70BBD01A1
:100FF0006150710977CF08950895FC016370658B86
:101000008481958126813781613039F0633029F000
:101010009187808733872287089531872087938738
:10102000828708956F927F928F929F92AF92BF9224
:10103000CF92DF92EF92FF920F931F93CF93DF93A4
:10104000EC014B015A0169013801E881F981028400
:10105000F385E02D0995E881F9810288F389E02D77
:1010600087019601A501B401CE010995A501460DA0
:10107000571D41505109E881F9810288F389E02D1B
:101080009601B401CE010995E881F9810088F189C2
:10109000E02D9301A501B401CE010995C80CD91C1E
:1010A000B60161507109E881F9810088F189E02D6C
:1010B0009301A501CE010995E881F9810688F78998
:1010C000E02DCE01DF91CF911F910F91FF90EF9016
:1010D000DF90CF90BF90AF909F908F907F906F9058
:1010E00009948F929F92AF92BF92CF92DF92EF922C
:1010F000FF920F931F93CF93DF934C016B015A0123
:10110000E901DC01ED91FC916217730781F404178A
:10111000150724F48B2D5801042F182F0A191B09C9
:1011200098012F5F3F4F048CF58DE02D12C04017C2
:10113000510709F52617370724F48D2D6901C62FAD
:10114000D82F9E012C193D092F5F3F4F068CF78D3C
:10115000E02D8701A501B601C4010995DF91CF916A
:101160001F910F91FF90EF90DF90CF90BF90AF90C5
:101170009F908F9008950284F385E02D0995D40106
:10118000ED91FC910488F589E02D9E01A501B60141
:10119000C4010995D401ED91FC910688F789E02DF1
:1011A000C401DF91CF911F910F91FF90EF90DF90DD
:1011B000CF90BF90AF909F908F900994EF92FF9245
:1011C0000F931F93DC011A960D911C911B97189693
:1011D0002D913C911997ED91FC9100A0F1A1E02D8A
:1011E0007B0140E050E060E070E009951F910F91B5
:1011F000FF90EF9008954F925F926F927F928F923F
:101200009F92AF92BF92CF92DF92EF92FF920F9395
:101210001F93CF93DF936C012B015A0139014801D1
:10122000DC01ED91FC910284F385E02D0995E2014A
:10123000640C751CD601ED91FC91C615D7055CF4C4
:101240000088F189E02D87019401A501BE01C60146
:1012500009952196EFCF0688F789E02DC601DF9129
:10126000CF911F910F91FF90EF90DF90CF90BF90A3
:10127000AF909F908F907F906F905F904F90099468
:101280008F929F92AF92BF92CF92DF92EF92FF9296
:101290000F931F93CF93DF93EC015B014A01690128
:1012A000E881F9810284F385E02D099595012C0DE3
:1012B0003D1D21503109E881F9810488F589E02D2F
:1012C00078018401A401B501CE010995E881F98175
:1012D0000688F789E02DCE01DF91CF911F910F9104
:1012E000FF90EF90DF90CF90BF90AF909F908F9046
:1012F00009948F929F92AF92BF92CF92DF92EF921A
:10130000FF920F931F93CF93DF93EC015B014A0190
:1013100069017801E881F9810284F385E02D09955E
:10132000C80CD91C860101501109E881F981048893
:10133000F589E02D9501A401B501CE010995E8815B
:10134000F9810688F789E02DCE01DF91CF911F91B9
:101350000F91FF90EF90DF90CF90BF90AF909F9054
:101360008F900994EF92FF920F931F93DC01ED9100
:10137000FC9100A0F1A1E02D09951F910F91FF9024
:10138000EF9008950F931F93DC01ED91FC91068C73
:10139000F78DE02D09951F910F9108950F931F93DD
:1013A000DC01ED91FC91048CF58DE02D09951F91E8
:1013B0000F910895DC01ED91FC910084F185E02D01
:1013C00009942F923F924F925F926F927F928F92E9
:1013D0009F92AF92BF92CF92DF92EF92FF920F93C4
:1013E0001F93CF93DF9300D000D000D0CDB7DEB7EE
:1013F0002C017E836D836A015901C801FC82EB8256
:101400004801841A950A97FE03C09194819491082B
:1014100035012D813E81621A730A77FE03C07194F3
:1014200061947108681479045CF43A2D2B2D5C01E9
:10143000832F922F3D812E81DE82CD82C32ED22E2C
:10144000AD81BE81AA16BB065CF43C2D2D2D6C012E
:10145000832F922F3D812E81BE82AD82A32EB22E8C
:1014600085012D813E81021B130B1C012C183D08A8
:1014700037FE03C0319421943108780117FF03C06F
:101480003FEFE31AF30AF594E794C816D9062CF057
:101490008FEF9FEF9A83898304C0A1E0B0E0BA8305
:1014A000A9832D813E81A216B30624F1D201ED91CC
:1014B000FC910484F585E02D2B813C81681479042E
:1014C00024F44D815E81B60103C0A6016D817E8149
:1014D000C2010995E218F308F7FE06C029813A8196
:1014E000C20ED31EE00EF11E8D819E8101969E8359
:1014F0008D83D7CF26960FB6F894DEBF0FBECDBF33
:10150000DF91CF911F910F91FF90EF90DF90CF90DF
:10151000BF90AF909F908F907F906F905F904F9013
:101520003F902F900895089580E090E008950F93E4
:101530001F93CF93DF93DC015596EC915597E230E2
:1015400071F0E330E9F0E13079F5FB0114960D908C
:10155000BC91A02DA41BB50BA21BB30B18C0EC01B2
:10156000EC81FD81E61BF70BBF0161507109EE8133
:10157000FF81DF01A41BB50BAD01421B530B14C04F
:10158000DA01EC01EE81FF81E61BF70B3197F7FDE5
:101590000DC0EC014E815F81E417F5073CF4AF010B
:1015A000BD010E947F1202C00E94E612DF91CF911E
:1015B0001F910F9108950F931F93DC015596EC91A5
:1015C0005597E23061F0E33009F1E13081F514968E
:1015D000ED91FC911597E41BF50B319723C0DC01CD
:1015E0001496ED91FC911597DF01A61BB70BBD0179
:1015F000DC011696ED91FC911797DF01A41BB50B4A
:10160000AD0141505109621B730B11C0FA01DC019D
:1016100016964D915C911797DA01A61BB70BBD0189
:10162000621B730BAB01BF010E94E6120CC057FD99
:101630000AC0DC011696ED91FC9117974E175F07D3
:1016400014F40E947F121F910F910895AF92BF92E0
:10165000CF92EF92FF920F931F93CF93DF93EC0102
:10166000262F888D998D009709F040C06A3059F473
:101670001D861C862C898E859F8538E0239F800DD2
:10168000911D112441C06D3009F4AAC08E898823B0
:10169000C1F03C898C859D8546E0349F800D911D6D
:1016A000112448855985481759075CF41D861C8606
:1016B0008E859F8548E0349F800D911D11249F8762
:1016C0008E87EA88FB88088919894E855F856C8535
:1016D0007D85CC88CE010E9465142C898C859D85E2
:1016E00036E0239F800D911D112442C06A3079F4A9
:1016F0001D861C862C89FC013696E4918E859F857B
:101700002E9F800D911D11249F878E8769C06D309B
:1017100009F466C0FC0134963491631708F460C084
:101720003196E491E61708F45BC0FC0132966591AE
:101730007491422F50E0431B510937E0349F500110
:10174000359FB00C1124A60EB71EF50132963491C8
:101750003196E491332311F0E1110DC0F501349677
:10176000E4912C898C859D85E29F800D911D11242B
:101770009D878C8735C0F501359644915E89552348
:1017800011F16C89E32FF0E0E40FF11D47FDFA95AC
:101790006E9FD0016F9FB00D11244C855D854A0F5F
:1017A0005B1FE885F985E417F5076CF41D861C8638
:1017B000FC013696E4918E859F856E9F800D911D6C
:1017C00011249F878E87EA88FB88088919894E85AE
:1017D0005F856C857D85CC88CE010E946514BECF67
:1017E00081E090E0DF91CF911F910F91FF90EF90FA
:1017F000CF90BF90AF900895CF92DF92EF92FF927B
:101800000F931F93CF93DF93C0916202D091630235
:101810008FB7F894C0906402D0906502E0906602A1
:10182000F09067028FBF8E85882359F089859A854D
:1018300002979A87898789859A8597FF02C01A86B9
:10184000198688810E947F162B8130E082179307CA
:1018500011F413E001C010E089810E947F162B81F2
:1018600030E08217930711F481E018278E819F8161
:10187000811B80FF12C0212F110F330B3F832E835A
:101880002C813D818270082E000C990B0197820FEC
:10189000931F9D838C8381E001C080E09E85992306
:1018A00061F0882351F089859A85883E9B4028F411
:1018B00089859A8549969A8789878A81882309F438
:1018C00070C04091F5015091F6016091F70170915F
:1018D000F80197018601041B150B260B370B0A3004
:1018E00011052105310508F45CC0C092F501D092C4
:1018F000F601E092F701F092F8010E947F162B8129
:1019000030E08217930781F48091F3019091F40104
:1019100001969093F4018093F3018937910520F0AB
:1019200083E090E09C878B878A810E947F163B81B1
:1019300021E0232730E08217930731F58091F301EE
:101940009091F401892BE1F08B859C85039719F424
:1019500084E090E008C08091F201823048F08C333E
:1019600078F486E090E09C878B871092F20108C0A3
:101970008D85811102C081E001C08CE38093F2016A
:101980001092F4011092F3018091F201882349F042
:1019900082508093F201811104C085E090E09C8721
:1019A0008B87DF91CF911F910F91FF90EF90DF9088
:1019B000CF9008950F931F93CF93DF93EC0188810D
:1019C0009981009729F02A813B812617370788F4EF
:1019D0008B016F5F7F4F0E941B24009761F09983FA
:1019E00088831B830A832C813D81232B11F4FC0106
:1019F000108281E001C080E0DF91CF911F910F91B3
:101A00000895CF93DF93EC0188819981009711F0BD
:101A10000E949223198218821D821C821B821A82C4
:101A2000DF91CF910895EF92FF920F931F93CF9381
:101A3000DF93EC0186179707C1F0FB01008111814C
:101A40000115110539F0E480F580B7010E94DA0C28
:101A5000811104C0CE010E94010D07C0FD82EC82FD
:101A6000B801888199810E94F624CE01DF91CF913F
:101A70001F910F91FF90EF900895FC01808191815B
:101A80000C949223FC01118210821382128215821F
:101A900014820C94130DEF92FF920F931F93CF9328
:101AA000DF93EC01198218821B821A821D821C822C
:101AB0006115710521F18B01FB0101900020E9F70F
:101AC00031977F01E61AF70AB7010E94DA0C8111FB
:101AD00009C0CE01DF91CF911F910F91FF90EF9040
:101AE0000C94010DFD82EC82B80188819981DF910F
:101AF000CF911F910F91FF90EF900C94F624DF91FE
:101B0000CF911F910F91FF90EF900895611571058E
:101B100079F0FB0101900020E9F73197AF01461BF6
:101B2000570BDC01ED91FC910280F381E02D0994CB
:101B300080E090E008958F929F92AF92BF92EF92D3
:101B4000FF920F931F93CF93DF93CDB7DEB7A1978B
:101B50000FB6F894DEBF0FBECDBF7C01FA01CB01FA
:101B600019A2223008F42AE08E010F5D1F4F822E49
:101B7000912CA12CB12CBF01A50194010E94C3227C
:101B8000F901CA01015011096A3014F4605D01C005
:101B9000695CD8016C93232B242B252B61F7B801AA
:101BA000C7010E94860DA1960FB6F894DEBF0FBE46
:101BB000CDBFDF91CF911F910F91FF90EF90BF901C
:101BC000AF909F908F9008951F920F920FB60F9233
:101BD00011242F933F934F935F936F937F938F9332
:101BE0009F93AF93BF93EF93FF938CEC92E00E948F
:101BF000E705FF91EF91BF91AF919F918F917F91F9
:101C00006F915F914F913F912F910F900FBE0F9069
:101C10001F9018951F920F920FB60F9211242F93B9
:101C20008F939F93EF93FF93E091DC02F091DD029D
:101C30008081E091E202F091E30282FD12C0908186
:101C40008091E5028F5F8F732091E602821751F039
:101C5000E091E502F0E0E453FD4F958F8093E502BB
:101C600001C08081FF91EF919F918F912F910F90F3
:101C70000FBE0F901F9018951F920F920FB60F92E4
:101C800011242F933F934F935F936F937F938F9381
:101C90009F93AF93BF93EF93FF93E0910001F09177
:101CA00001010995FF91EF91BF91AF919F918F91A4
:101CB0007F916F915F914F913F912F910F900FBE48
:101CC0000F901F901895FC01F89424813581808530
:101CD000823021F4C9018170992705C0843031F424
:101CE000C901837099279583848302C01582148269
:101CF00078948085843029F43595279535952795F6
:101D000004C0823011F4359527958685882329F003
:101D100081859285892F992702C080E090E037FF66
:101D200003C0809590950895232B11F00196089596
:101D300080E090E008951F920F920FB60F92112449
:101D40002F933F934F935F936F937F938F939F93C3
:101D5000AF93BF93EF93FF938091B900887F803654
:101D600009F49CC068F5883209F45BC090F48031B6
:101D700009F454C038F4882309F4F6C0883009F413
:101D80004DC0F6C0883109F44CC0803209F45DC002
:101D9000EFC0803409F468C048F4803309F455C0BA
:101DA000883309F0E5C08093A502D8C0803509F4D6
:101DB0004FC0883509F45DC0883409F0D9C0D6C059
:101DC000883909F4C7C0A8F4883709F467C038F423
:101DD000883609F463C0803709F460C0C9C0883808
:101DE00009F4B8C0803909F45FC0803809F0C0C078
:101DF0005BC0803B09F486C038F4803A09F466C0C1
:101E0000883A09F47FC0B4C0803C09F4A7C0883C7C
:101E100009F4A4C0883B09F48AC0AAC08091820258
:101E200010C09091A4028091A302981770F5E091E0
:101E3000A40281E08E0F8093A402F0E0ED57FD4FE5
:101E400080818093BB0085EC86C08093A5028EC004
:101E5000E091A40281E08E0F8093A4028091BB00E8
:101E6000F0E0ED57FD4F80839091A4028091A30292
:101E70006EC0E091A40281E08E0F8093A402809155
:101E8000BB00F0E0ED57FD4F80838091A6028111E9
:101E90006DC081E08093810284EA61C083E0809319
:101EA000A70210925B02CFCF80915B02803208F0D4
:101EB00051C0E0915B0281E08E0F80935B028091C4
:101EC000BB00F0E0E55CFD4F8083BDCF85EC8093E7
:101ED000BC001092A70280915B02803230F4E09146
:101EE0005B02F0E0E55CFD4F108260915B0270E008
:101EF000E0915C02F0915D028BE392E00995109213
:101F00005B0236C084E08093A70210923A021092DE
:101F10003902E0915E02F0915F02099580913902E9
:101F2000811105C081E08093390210921902E0917D
:101F30003A0281E08E0F80933A02F0E0E75EFD4FB7
:101F400080818093BB0090913A028091390298176A
:101F500008F479CF85E88093BC000AC085EC8093B3
:101F6000BC001092A70204C01092A5020E94830632
:101F7000FF91EF91BF91AF919F918F917F916F9161
:101F80005F914F913F912F910F900FBE0F901F9037
:101F9000189508958EBD00000DB407FEFDCF8EB5D7
:101FA00008951F93CF93DF93FC01848D958D009747
:101FB00029F1162FEF0120A131E03093A8022093E0
:101FC000CA021092A9021092CB02DC01ED91FC91A1
:101FD0000190F081E02D60E009958C8D9D8DDC01F4
:101FE000ED91FC910190F081E02D612F09958C8D90
:101FF0009D8DDF91CF911F910C94F017A4A5B5A5ED
:102000009C9182A9809589238C93828D938D892BB5
:1020100031F0862FDF91CF911F910C94CA0F28E0E9
:1020200030E080E8A0A5B1A590A9462F482319F07B
:102030004C91942B03C04C91909594239C93A2A512
:10204000B3A54C9191A9942B9C93A2A5B3A54C91B7
:1020500091A9909594239C9386952150310911F76D
:10206000DF91CF911F9108958CBD9DBD08951F9361
:10207000CF93DF93EC01162F8C8D9D8D892BB1F0C2
:102080002EA93FA948AD59AD60E074E284EF90E01D
:102090000E94C322DA01C9014097A109B109B6958E
:1020A000A795979587958093B8000FC08A8D9B8DD3
:1020B000892B21F08CA99DA90E943410EEA5FFA5C3
:1020C00090818BA9809589238083111102C066EAD3
:1020D00001C067EACE010E94D10F8C8D9D8D892BA6
:1020E000B1F02AAD3BAD4CAD5DAD60E074E284EF84
:1020F00090E00E94C322DA01C9014097A109B10909
:10210000B695A795979587958093B80006C0EEA5DC
:10211000FFA590818BA9892B8083DF91CF911F919F
:10212000089580910F01882329F080917F0290917A
:102130008002089580911001882329F080910D017B
:1021400090910E01089580911101882329F08091CA
:102150000B0190910C01089508950E94E1243FB76E
:10216000F89480917B0290917C02A0917D02B091C5
:102170007E0226B5A89B05C02F3F19F00196A11D30
:10218000B11D3FBFBA2FA92F982F8827820F911D0D
:10219000A11DB11DBC01CD0142E0660F771F881F54
:1021A000991F4A95D1F708951F920F920FB60F927B
:1021B00011242F933F938F939F93AF93BF9380915D
:1021C000640290916502A0916602B091670230911D
:1021D0007A0223E0230F2D3720F40196A11DB11DB3
:1021E00005C026E8230F0296A11DB11D20937A0297
:1021F0008093640290936502A0936602B093670295
:1022000080917B0290917C02A0917D02B0917E0230
:102210000196A11DB11D80937B0290937C02A09337
:102220007D02B0937E02BF91AF919F918F913F91BC
:102230002F910F900FBE0F901F901895833081F053
:1022400028F4813099F08230A1F008958730A9F008
:102250008830B9F08430D1F4809180008F7D03C044
:10226000809180008F7780938000089584B58F7768
:1022700002C084B58F7D84BD08958091B0008F77B2
:1022800003C08091B0008F7D8093B0000895EF92DD
:10229000FF920F931F93CF93DF93809185039091CB
:1022A0008603892BD1F020919F033091A0034091A8
:1022B000A1035091A20360E074E284EF90E00E94D9
:1022C000C322DA01C9014097A109B109B695A795C2
:1022D000979587958093B80016C08091830390915D
:1022E0008403892B31F080919D0390919E030E947D
:1022F0003410E0919703F0919803908180919C03B2
:1023000080958923808365E08EE89AE00E944C18CE
:1023100060916D03615089E693E00E94D10F209196
:102320006F0330917003C901079697FD079633E05C
:10233000959587953A95E1F720916D0330916E035D
:10234000829F8001839F100D929F100D1124C091D8
:102350008703D091880380918503909186030C0FA9
:102360001D1F009709F44CC02091890331E0309380
:10237000A8022093CA021092A9021092CB02DC019B
:10238000ED91FC910190F081E02D60E40995FF242E
:10239000F394EE24E39480918503909186030C17C7
:1023A0001D0759F1BFE1BF15D0F40E94F0178091CD
:1023B0008903E092A8028093CA021092A9021092A7
:1023C000CB028091850390918603DC01ED91FC9115
:1023D0000190F081E02D60E40995FF24F394809151
:1023E0008503909186036991DC01ED91FC91019048
:1023F000F081E02D0995F394CECF0E94F01741C0F3
:10240000E0919503F0919603908180919B03892B35
:1024100080830C171D07A9F18991209183033091C6
:102420008403232B19F00E94CA0FF3CF28E030E079
:1024300040E8E0919103F091920390919903582F15
:10244000542319F05081952B03C05081909595230A
:102450009083E0919303F0919403508190919A03BB
:10246000952B9083E0919303F09194035081909188
:102470009A03909595239083469521503109C9F68A
:10248000C8CF8091850390918603892BD1F020914C
:10249000A3033091A4034091A5035091A60360E0EB
:1024A00074E284EF90E00E94C322DA01C9014097F0
:1024B000A109B109B695A795979587958093B8001E
:1024C00017C0E0919703F0919803908180919C034D
:1024D000892B80838091830390918403892B41F021
:1024E000DF91CF911F910F91FF90EF900C94C90F46
:1024F000DF91CF911F910F91FF90EF9008950F936F
:102500001F93CF93DF9377FF04C0260F371F60E040
:1025100070E0DC011496CD91DC911597FB01E20F80
:10252000F31FCE17DF071CF49E01261B370B121674
:1025300013060CF046C0FA0157FD3796DF01E3E0C1
:10254000B595A795EA95E1F7AC9FF001AD9FF00D29
:10255000BC9FF00D11246E0F7F1FDC015E96ED9184
:10256000FC915F97E60FF71F4770552781E090E0D9
:1025700001C0880F4A95EAF7482F0130110539F05C
:1025800078F002301105E9F42E0F3F1F13C02E0F13
:102590003F1FE217F307A9F08081842B8193F9CFC5
:1025A00080952E0F3F1FE217F30759F09081982373
:1025B0009193F9CFE217F30721F08081842781936B
:1025C000F9CFDF91CF911F910F910895EF92FF9274
:1025D0000F931F93CF93DF93EC0177FDA5C0EC80A1
:1025E000FD806E157F050CF09FC057FF04C0240FBF
:1025F000351F40E050E08E819F81FA01E20FF31F0A
:102600008E179F071CF49C01241B350B1216130612
:102610000CF08AC0922F842F8695869586958E9D84
:10262000D0018F9DB00D11246A0F7B1FAE8DBF8D21
:10263000A60FB71F4770B1F188E0841B482F682FA1
:1026400070E0FB01EA57F54FE491281798F4621BFC
:1026500071092FEF30E002C0359527956A95E2F7B2
:10266000E2230130110549F078F00230110509F03C
:102670005BC00EC00130110519F48C91E82B0AC023
:102680000130110508F049C0E0958C91E82302C0A3
:102690008C91E827EC93941708F446C02C813D8177
:1026A000A20FB31FE92FE41BE830F8F00230110548
:1026B00061F48E2F9C9190959C932C813D81A20F6B
:1026C000B31F88508830B0F70FC081E001151105A5
:1026D00009F480E081959E2F8C932C813D81A20F7F
:1026E000B31F98509830C0F7E770EE23E9F0F0E0A0
:1026F000E258F54FE4910130110539F048F002300D
:10270000110591F48C91E82706C08C91E82B03C049
:10271000E0958C91E823EC9307C00230110509F491
:10272000B7CFAE0DBF1DBECFDF91CF911F910F91DF
:10273000FF90EF900895CF92DF92EF92FF920F9368
:102740001F93CF93DF93EC016B0181E080937D03B6
:102750000E944D1781E090E090937A038093790373
:1027600010927C0310927B0380E290E090937603BA
:10277000809375031092780310927703CE010E9424
:10278000011900E010E023E530E04AE050E060E0AD
:1027900070E089E693E00E94DB0A85E090E0909388
:1027A000760380937503C8E0D0E0D0937803C0939C
:1027B00077036FE871E089E693E00E94860D82E07E
:1027C00080937D0388E290E0909376038093750375
:1027D000D0937803C09377030D2C000CEE08FF080C
:1027E000F7FE0EC06DE289E693E00E94260B4427B7
:1027F0005527BA014C195D096E097F092AE003C00B
:102800002AE0B701A60189E693E00E949B0D82E0D1
:1028100080937D03DF91CF911F910F91FF90EF90F7
:10282000DF90CF900C944711AF92BF92CF92DF927E
:10283000FF920F931F93CF93DF938C015B01C9E647
:10284000D3E0FF24F394FC8A0E944D17198A188A5A
:1028500081E090E09B8B8A8B8FE0C82ED12CDD86A7
:10286000CC861F861E86C8010E94011900E010E078
:1028700023E530E04AE050E060E070E0CE010E94E5
:10288000DB0A85E090E09D878C87DF86CE866FE847
:1028900071E0CE010E94860DFC8A88E290E09D875F
:1028A0008C8788E090E09F878E87C5010E94011980
:1028B00082E08C8BDF91CF911F910F91FF90DF9081
:1028C000CF90BF90AF900C9447112F923F924F92B0
:1028D0005F926F927F928F929F92AF92BF92CF92B0
:1028E000DF92EF92FF920F931F93CF93DF93CDB7B9
:1028F000DEB76B970FB6F894DEBF0FBECDBF9B8FD0
:102900008A8F5B011A01D22E1F830E833701C98281
:10291000DC0158962D913C9159972115310509F00C
:10292000E6C018968D919C911997681779070CF05D
:10293000CDC11A968D919C911B97481759070CF0A1
:10294000C5C18C2C912CFB0126E0C29EE00DF11D2F
:102950001124FB87EA871E161F060CF0B7C1A401DD
:1029600083E0440F551F8A95E1F75D874C87CA01C4
:10297000820D931D181619060CF0A8C157968C915C
:10298000811104C05FEA5D1508F4D394AA8DBB8D54
:10299000ED91FC9111970284F385E02DCD0109950D
:1029A000B5E0DB9EC0011124F5013596FF87EE8767
:1029B000BB82AA8225019C012A193B09398B288BED
:1029C000A101485F5F4F5B8B4A8BE889F989E40D71
:1029D000F51DE258FA4F5491588761013D822C82CF
:1029E000888580FF13C0AA8DBB8DED91FC91B981C4
:1029F000B13031F40484F585E02D2E813F8116C07D
:102A00000684F785E02DEE80FF801AC0EE81FF81FD
:102A1000E615F705F1F0AA8DBB8DED91FC91B9811A
:102A2000B13051F40484F585E02D9301A601B20183
:102A30008A8D9B8D09950DC00684F785E02D730165
:102A4000840194014C815D816A817B818A8D9B8D9B
:102A50000995E885E695E887FFEFCF1ADF0A2C8114
:102A60003D81280D391D3D832C834A895B89C4161D
:102A7000D50609F0B5CF5FEF451A550A8A819B81CB
:102A8000880D991D9B838A83AE85BF854A165B0698
:102A900009F09BCFEE81FF81E615F70509F4F4C03C
:102AA000EA8DFB8DA081B181F981F13079F4B50116
:102AB0006B5F7F4F5096ED91FC915197830128E019
:102AC00030E0A1018A8D9B8D0995DEC06A857B85EA
:102AD000681979091E96ED91FC911F9773010C8579
:102AE0001D859401A1018A8D9B8D0995CDC0F901A9
:102AF0003496E491DE1AF901329685919491B7E00B
:102B0000DB9E800D911D1124F901259134913B8BA1
:102B10002A8BFC01259134912901FC013296C49045
:102B2000319634913E87329614913196D4904981F2
:102B3000423058F0612E012E000C77088D2D0D2C9F
:102B4000000C990B9987888704C019861886612C18
:102B5000712CAA8DBB8DED91FC9111970284F385A8
:102B6000E02DCD010995B9818B2E912C689CC00177
:102B7000699C900D789C900D1124FC01EA0DFB1DC1
:102B8000FD87EC871A82712C612CE12F110FFF0B4E
:102B900095012E0F3F1F3B872A87AC0CB11CA50166
:102BA0004E0F5F1F5F8B4E8BC1018D0D911DD7FCAA
:102BB0009A95998F888F9E85691608F065C0862D35
:102BC00090E048855985480F591F489D9001499DBF
:102BD000300D589D300D1124D101A20FB31FB98BB8
:102BE000A88BEC85FD85FD83EC83AA84BB84DA8009
:102BF000FA85DF1A288D398D280F391F3D8B2C8BD4
:102C00008D2D8A0D4E895F89A416B506C1F1877096
:102C100041F4C2010196EA89FB89E40DF51D749027
:102C20002C0177FE21C0AA8DBB8DED91FC91B9815D
:102C3000B13061F40484F585E02D2E813F814C890B
:102C40005D89B5018A8D9B8D09950EC00684F78537
:102C5000E02DEE80FF8084019401488959896C81C0
:102C60007D818A8D9B8D0995770CEFEFAE1ABE0A98
:102C70002C813D81280D391D3D832C83C1CF3A81A4
:102C80003C0D3A83639497CFAA8DBB8DED91FC9157
:102C900011970688F789E02DCD016B960FB6F89451
:102CA000DEBF0FBECDBFDF91CF911F910F91FF907F
:102CB000EF90DF90CF90BF90AF909F908F907F90DC
:102CC0006F905F904F903F902F9009946B960FB646
:102CD000F894DEBF0FBECDBFDF91CF911F910F9152
:102CE000FF90EF90DF90CF90BF90AF909F908F902C
:102CF0007F906F905F904F903F902F900895CF936B
:102D0000DF93282F30E0F901E659FA4F8491F90159
:102D1000EA5AFA4FD491F901EE5BFA4FC491CC23F1
:102D200091F081110E941E11EC2FF0E0EE0FFF1FB9
:102D3000E85CFA4FA591B491EC91ED2381E090E02D
:102D400021F480E002C080E090E0DF91CF9108950F
:102D50001F93CF93DF93282F30E0F901E659FA4F04
:102D60008491F901EA5AFA4FD491F901EE5BFA4FD6
:102D7000C491CC23C1F0162F81110E941E11EC2F9B
:102D8000F0E0EE0FFF1FE25DFA4FA591B4919FB7FF
:102D9000F894111104C08C91D095D82302C0EC9105
:102DA000DE2BDC939FBFDF91CF911F910895CF93CE
:102DB000DF9390E0FC01EA5AFA4F2491FC01EE5BAC
:102DC000FA4F8491882361F190E0880F991FFC01EC
:102DD000EC5DFA4FC591D491FC01E25DFA4FA591EB
:102DE000B491611109C09FB7F8948881209582231E
:102DF0008883EC912E230BC0623061F49FB7F89466
:102E00008881322F309583238883EC912E2B2C934D
:102E10009FBF06C08FB7F894E8812E2B28838FBF01
:102E2000DF91CF9108958F929F92AF92BF92CF92F0
:102E3000DF92EF92FF926B017C010E94AF104B0179
:102E40005C01C114D104E104F104F1F00E94AF105F
:102E5000DC01CB0188199909AA09BB09883E934076
:102E6000A105B10570F321E0C21AD108E108F1080B
:102E700088EE880E83E0981EA11CB11CC114D104F9
:102E8000E104F10419F7DDCFFF90EF90DF90CF90D0
:102E9000BF90AF909F908F90089520916F033091D5
:102EA0007003C901079697FD079623E095958795CE
:102EB0002A95E1F720916D0330916E03829FA00166
:102EC000839F500D929F500D112460E070E080911F
:102ED0008703909188030C94EF243F924F925F9266
:102EE0006F927F928F929F92AF92BF92CF92DF921A
:102EF000EF92FF920F931F93CF93DF9300D000D0F8
:102F000000D0CDB7DEB72C013B014A015901C90100
:102F1000079697FD07969C0193E0359527959A951E
:102F2000E1F73C832B83C12CD12CE12CF12C312CEB
:102F3000C3018E0D9F1D9A838983E016F106C4F5A7
:102F40001E821D822D813E812A153B054CF5C9014B
:102F500087709927892B11F0330C0EC0ED81FE810B
:102F6000F7FD379683E0F595E7958A95E1F7EC0D47
:102F7000FD1DE80DF91D349037FE0CC021E030E056
:102F800049815A816D817E81640D751D89E693E0CA
:102F90000E94DA098D819E8101969E838D83D2CF16
:102FA0009FEFE91AF90A2B813C81C20ED31EC0CFD4
:102FB00026960FB6F894DEBF0FBECDBFDF91CF913E
:102FC0001F910F91FF90EF90DF90CF90BF90AF9047
:102FD0009F908F907F906F905F904F903F9008955B
:102FE0003091CB02313208F04BC08091A7028111A1
:102FF000FCCF9091CA0222E02093A70221E0209307
:10300000A6022FEF2093A5021092A4023093A302F0
:10301000EAEAF2E0A3E8B2E020E0321721F04191C1
:103020004D932F5FFACF1092820220918202990F66
:10303000922B9093820290918102913061F41092D0
:103040008102909182029093BB009091BC0093FD0D
:10305000F8CF95EC01C095EE9093BC009091A7023B
:103060009230E1F39091A5029F3F79F08091A50203
:10307000803241F08091A502803331F084E005C0B8
:1030800081E003C082E001C083E01092A9021092A7
:10309000CB021092A8020895DF92EF92FF920F9355
:1030A0001F93CF93DF93D82ED92FC62F80918503FE
:1030B00090918603009709F454C02091890331E070
:1030C0003093A8022093CA021092A9021092CB0258
:1030D000DC01ED91FC910190F081E02D60E009951B
:1030E000ED2CFD2E11E0D1E08091850390918603B7
:1030F000CC2371F11032C8F00E94F017809189033F
:10310000D093A8028093CA021092A9021092CB0217
:103110008091850390918603DC01ED91FC910190F3
:10312000F081E02D60E0099511E080918503909198
:103130008603F7016491DC01ED91FC910190F0812F
:10314000E02D09951F5FC150BFEFEB1AFB0ACCCFF2
:10315000DF91CF911F910F91FF90EF90DF900C9432
:10316000F017E0919503F0919603908180919B0375
:103170008095892380830D2D1D2FCC2309F439C020
:10318000F80184912091830330918403232B31F043
:103190000E94CA0FC1500F5F1F4FEFCF28E030E0F1
:1031A00040E8E0919103F091920390919903582F98
:1031B000542319F05081952B03C05081909595238D
:1031C0009083E0919303F0919403508190919A033E
:1031D000952B9083E0919303F0919403508190910B
:1031E0009A03909595239083469521503109C9F60D
:1031F000D1CFDF91CF911F910F91FF90EF90DF9092
:103200000895FC01448155816081718189E693E0D4
:103210000C947605CF93DF93EC0180910F01882306
:1032200079F020917F023091800246E0429FC001F8
:10323000439F900D1124BE0185539C4F0E94130D96
:1032400080911001882379F020910D0130910E01B9
:1032500046E0429FC001439F900D1124BE0185535B
:103260009C4F0E94130D80911101882389F02091B9
:103270000B0130910C0146E0429FC001439F900D2D
:103280001124BE0185539C4FDF91CF910C94130DF7
:10329000DF91CF91089580E480937C0080917A0043
:1032A000806480937A0080917A0086FDFCCF8091C3
:1032B00078002091790090E0922B0895EF92FF9290
:1032C0000F931F93CF93DF9300D000D000D0CDB7E2
:1032D000DEB77C01442359F010927A0310927903EF
:1032E00081E090E090937C0380937B030AC081E0AF
:1032F00090E090937A038093790310927C0310926C
:103300007B03109276031092750370937803609399
:1033100077036FEE71E0CE0101960E944B0DF7012D
:1033200004811581E080F180E114F10471F101154F
:103330001105B1F08D819E81080F191FB801CE01D2
:1033400001960E94DA0C882301F129813A818D814E
:103350009E81B701820F931F0E94F6241E830D8366
:10336000CE0101960E940119CE0101960E943D0DE9
:1033700026960FB6F894DEBF0FBECDBFDF91CF917A
:103380001F910F91FF90EF900895CE0101960E943A
:10339000010DE6CFCF93DF9384E491E090936A032D
:1033A000809369038091870390918803009711F0BF
:1033B0000E9492238DEA93E00E943D0D87EA93E0FC
:1033C0000E943D0D85EC93E00E943D0D8FEB93E054
:1033D0000E943D0D89EB93E00E943D0D83EB93E04D
:1033E0000E943D0DCFEED3E02697CE010E943D0D09
:1033F00083E0CB3CD807C1F7DF91CF910895CF93FD
:10340000DF93CDB7DEB760970FB6F894DEBF0FBE7F
:10341000CDBF789484B5826084BD84B5816084BD5D
:1034200085B5826085BD85B5816085BD80916E0062
:10343000816080936E001092810080918100826093
:1034400080938100809181008160809381008091D0
:1034500080008160809380008091B10084608093BF
:10346000B1008091B00081608093B00080917A00BB
:10347000846080937A0080917A00826080937A00E1
:1034800080917A00816080937A0080917A008068D0
:1034900080937A001092C100E091DC02F091DD028D
:1034A00082E08083E091D802F091D9021082E0910D
:1034B000DA02F091DB028FEC80831092E402E0915B
:1034C000E002F091E10286E08083E091DE02F0917B
:1034D000DF02808180618083E091DE02F091DF0273
:1034E000808188608083E091DE02F091DF0280813C
:1034F00080688083E091DE02F091DF0280818F7D21
:10350000808361E08DE00E94D71661E08DE00E942B
:10351000A81660ED77E080E090E00E9413178FE03E
:1035200090E00E94FA228C018FE0F80180838EE007
:10353000818380E18283138215821482178216822E
:1035400081E0808712861186148613868587868798
:1035500062E08FE00E94D71662E0F80181810E944C
:10356000D71662E0F80182810E94D716F8018081A7
:103570000E947F16F801238130E08217930721F41F
:1035800083E090E097838683F80181810E947F1613
:10359000F801238130E08217930739F486819781FF
:1035A000F1E08F27F80197838683109363020093DD
:1035B0006202F80116861286118680918703909127
:1035C0008803892B11F520916F0330917003C90195
:1035D000079697FD0796B3E095958795BA95E1F71D
:1035E00020916D0330916E036C01C29EC001C39E99
:1035F000900DD29E900D11240E94FA229093880380
:1036000080938703892B09F417C10E944D1780917D
:103610006F0390917003813291050CF4BBC4BC011F
:103620006054710977FF02C06F5F7F4F7595679592
:1036300080916D0390916E038255910997FD0196DB
:1036400000E410E022E530E044E652E095958795ED
:103650000E946D1782E080938A0380918503909188
:103660008603892B09F4B0C480916F039091700395
:10367000809709F4A7C48DE38093890310926102B7
:10368000109260021092A9021092CB021092A7022F
:1036900081E08093A6021092810261E082E10E94A3
:1036A000A81661E083E10E94A8168091B9008E7F80
:1036B0008093B9008091B9008D7F8093B90088E430
:1036C0008093B80085E48093BC0085EB96E09093EE
:1036D0005F0280935E0286EB96E090935D0280939A
:1036E0005C028091900387FD1EC061E00E94D716A6
:1036F00061E0809190030E94A81661E070E080E094
:1037000090E00E94131760E0809190030E94A81639
:103710006AE070E080E090E00E94131761E0809121
:1037200090030E94A8168091850390918603892BAF
:1037300009F409C520919F033091A0034091A10392
:103740005091A20360E074E284EF90E00E94C322F3
:10375000DA01C9014097A109B109B695A7959795D6
:1037600087958093B80064E080E890E00E944C1850
:1037700060916F03615089E693E00E94D10F64E08D
:103780008CE790E00E944C1880918A03813009F404
:10379000F1C464E189E693E00E94D10F64E088E718
:1037A00090E00E944C1880916D0390916E038038D8
:1037B000910509F0F2C480916F03909170038032FB
:1037C000910509F0D9C464E084E790E00E944C18A8
:1037D00069ED89E693E00E94D10F80918A038130E0
:1037E00009F4F7C461EF89E693E00E94D10F66E027
:1037F00088E690E00E944C188091850390918603A2
:10380000892B09F4E8C42091A3033091A4034091CB
:10381000A5035091A60360E074E284EF90E00E945B
:10382000C322DA01C9014097A109B109B695A7954C
:10383000979587958093B8000E944D1780E18093FB
:1038400081001092800080E49FE190938700809334
:10385000860081E1809381008CEF9BE090930101D1
:103860008093000181E080936F00809162029091CB
:1038700063020E94630E90936E0280936D0288240F
:103880008394912C72E3272E312C00E210E060E04B
:1038900070E0CB010150110909F481C06B017C017A
:1038A000CC0CDD1CEE1CFF1CCD86DE86EF86F88A74
:1038B0008091020190910301A0910401B091050152
:1038C000892B8A2B8B2BB1F01092020110920301ED
:1038D00010920401109205010E944B19092E000C50
:1038E000AA0BBB0B8093690290936A02A0936B02B0
:1038F000B0936C02A12CB12C0E944B196C01990F52
:10390000EE08FF08412C512C32014394809169024A
:1039100090916A02A0916B02B0916C028C159D058A
:10392000AE05BF0519F4412C512C32010E944B19F0
:10393000092E000CAA0BBB0BF1E0E0E030E020E028
:10394000C816D906EA06FB0609F4F0E04F2F5E2FF1
:10395000632F722F8093690290936A02A0936B0287
:10396000B0936C023FEFA31AB30A441555056605E0
:10397000770531F423E6A216B10409F0BDCF02C0E9
:10398000B301A20166277727CD84DE84EF84F8880F
:10399000C42AD52AE62AF72AC701B6017BCF6115CA
:1039A00071058105910511F00E94512281E08093FB
:1039B0007D030E944D1790927A03809279031092B2
:1039C0007C0310927B0330E2E32EF12CF09276031D
:1039D000E092750310927803109277036CE671E021
:1039E00089E693E00E94860D8091090190910A0179
:1039F0008130910509F07BC000910F0180917F0219
:103A00009091800216E0189FB001199F700D11244B
:103A100065537C4FCE0101960E94420D402F68E015
:103A200070E0CE0101960E945E19CE0101960E94BF
:103A30003D0D0091100180910D0190910E01189F94
:103A4000B001199F700D112465537C4FCE01019672
:103A50000E94420D402F60E170E0CE0101960E946D
:103A60005E19CE0101960E943D0D009111018091D9
:103A70000B0190910C01189FB001199F700D11243A
:103A800065537C4FCE0101960E94420D402F68E1A4
:103A900070E0CE0101960E945E19CE0101960E944F
:103AA0003D0DC0900901D0900A010D2C000CEE08CC
:103AB000FF08F7FE0EC06DE28CEC92E00E94090652
:103AC00044275527BA014C195D096E097F092AE080
:103AD00003C02AE0B701A6018CEC92E00E949B0D86
:103AE00067E771E08CEC92E00E94860D61C002975E
:103AF00009F05EC00E9491108130910521F154F4CB
:103B0000892B09F055C000917502109176026BEC7B
:103B100073E01FC08230910531F1039709F048C06E
:103B2000809171029091720226E0289FB001299F36
:103B3000700D112469557C4FCE0101960E94420DF3
:103B40006DED73E022C0009106011091070161ED57
:103B500073E0CE0101960E94420DB801CE0101969C
:103B60000E949B1321C0809173029091740226E001
:103B7000289FB001299F700D11246D547C4FCE01F8
:103B800001960E94420D67ED73E0CE0107960E94F8
:103B9000420DBE016F5F7F4FCE0107960E94141445
:103BA000CE0107960E943D0DCE0101960E943D0D6B
:103BB0000E9447110091620210916302C8010E94A5
:103BC000630E20916F0230917002820F931F9093C9
:103BD000700280936F0297FD0196959587952091CD
:103BE0006D0230916E022817390744F490936E02EB
:103BF00080936D0281E0809378020AC08217930758
:103C00006CF490936E0280936D0281E08093770252
:103C100064EF71E080E090E00E941317F801838563
:103C20009485238534852330310511F0148613865D
:103C3000009729F0059719F481E08093790280912B
:103C40007902882309F454C0109279028091090105
:103C500090910A018130910509F044C00E949110B1
:103C600084309105B1F00597A9F510927602109273
:103C70007502309207012092060110927402109290
:103C80007302109272021092710281E08093080117
:103C90002FC080910801882359F067E771E08CEC10
:103CA00092E00E94860D109208016AE771E005C05B
:103CB00081E08093080164E871E0CE0101960E94E2
:103CC0004B0DCE0101960E940A19CE0101960E9469
:103CD0003D0D0EC082E0C82ED12CD0920A01C092B8
:103CE000090106C0029721F490920A01809209010D
:103CF00080917802882309F455C080910901909140
:103D00000A01019709F04EC01092780290910F01BC
:103D100080911001992341F0811106C010920F018A
:103D200081E08093100189C020911101882341F026
:103D3000211106C01092100181E0809311017DC015
:103D4000222309F47AC0811178C0911176C0809144
:103D50007F029091800201968630910514F080E0F8
:103D600090E09093800280937F0280910D0190916A
:103D70000E0101968630910514F080E090E090935A
:103D80000E0180930D0180910B0190910C01019621
:103D90008630910514F080E090E090930C018093C0
:103DA0000B014BC080917702882309F49DC080915C
:103DB000090190910A01029709F044C0109277021C
:103DC0000E9491108130910599F064F4892BA9F536
:103DD000809175029091760201979093760280937C
:103DE00075022BC08230910569F00397C9F025C098
:103DF00080910601909107010197909307018093AC
:103E000006011BC08091730290917402019797FF85
:103E100002C083E090E090937402809373020DC01F
:103E20008091710290917202019797FF02C081E028
:103E300090E09093720280937102809177028823C0
:103E400009F452C08091090190910A01019709F08B
:103E50004BC0109277028091100181110AC090919D
:103E60001101992331F01092110181E0809310012A
:103E70008EC090910F01911109C0882309F487C069
:103E80001092100181E080930F0181C081117FC0E9
:103E90008091110181117BC080917F0290918002FD
:103EA000019797FF02C085E090E090938002809395
:103EB0007F0280910D0190910E01019797FF02C042
:103EC00085E090E090930E0180930D0180910B01AD
:103ED00090910C01019797FF02C085E090E09093CC
:103EE0000C0180930B0153C080917802882309F460
:103EF0004EC08091090190910A01029709F047C0D4
:103F0000109278020E94911081309105C9F01CF442
:103F1000892B39F03CC082309105E1F0039749F1DB
:103F200036C080917502909176020196813191059B
:103F300014F080E090E0909376028093750227C0A1
:103F4000809106019091070101969093070180935B
:103F500006011DC080917302909174020196843015
:103F6000910514F080E090E09093740280937302C6
:103F70000EC080917102909172020196823091057B
:103F800014F080E090E090937202809371020E949E
:103F900078067BCCBC016052710977FF02C06F5F6D
:103FA0007F4F7595679580916D0390916E03835750
:103FB000910997FD019600E210E023E730E044E824
:103FC00050E044CB8CE358CB61E080918E030E949B
:103FD000D71661E080918F030E94D71680918E03DF
:103FE000082E000C990BFC01EE5BFA4FE491F0E017
:103FF000EE0FFF1FE25DFA4F259134913093960347
:1040000020939503FC01EA5AFA4FE491E0939B0355
:1040100080918F03082E000C990BFC01EE5BFA4F88
:10402000E491F0E0EE0FFF1FE25DFA4FA591B4912D
:10403000B0939803A0939703FC01EA5AFA4FE491D6
:10404000E0939C038C91E82BEC93809183039091F7
:104050008403892B09F434C01FB7F8948091680257
:10406000811127C0ECE4F5E08491E0E6F5E094915D
:10407000E82FF0E0EE0FFF1FEC5DFA4FA591B49131
:10408000EC91E92321F461E08AE00E94A81661E046
:104090008AE00E94D7168CB580618CBD8CB5806497
:1040A0008CBD61E08DE00E94D71661E08BE00E943C
:1040B000D716809168028F5F809368021FBF11CB73
:1040C00061E080918C030E94D71661E080918D039E
:1040D0000E94D71680918C03082E000C990BFC01CE
:1040E000EE5BFA4FE491F0E0EE0FFF1FE25DFA4F56
:1040F000259134913093920320939103FC01EA5A65
:10410000FA4FE491E093990380918D03082E000CFF
:10411000990BFC01EE5BFA4FE491F0E0EE0FFF1F0C
:10412000E25DFA4FA591B491B0939403A0939303E9
:10413000FC01EA5AFA4FE491E0939A038C91E095DE
:10414000E823EC93CECA8091830390918403892B5A
:1041500031F080919D0390919E030E943410E09174
:104160009703F0919803908180919C038095892317
:104170008083F9CA60E10ECB8034910509F028CB29
:1041800063E081E790E00E944C1880918A038130BF
:1041900011F06FEC19C06FE917C08036910509F076
:1041A00017CB80916F0390917003409709F010CB6B
:1041B00063E08EE690E00E944C1880918A03813083
:1041C00011F06FEA01C060E189E693E00E94D10F2F
:1041D000FFCA62E208CBE0919703F09198039081C7
:1041E00080919C03892B8083809183039091840329
:1041F000892B09F421CB0E94C90F1ECBCF93DF93EB
:10420000ECECF2E01382128288EE93E0A0E0B0E0E2
:1042100084839583A683B78320E231E031832083B2
:1042200025EC30E03587248724EC30E0378726877B
:1042300020EC30E0318B208B21EC30E0338B228B73
:1042400022EC30E0358B248B26EC30E0378B268B4C
:10425000118E128E138E148ECFEED3E01B821A8233
:104260008C839D83AE83BF8382E391E099838883AF
:1042700065E971E08BEC93E00E944B0D6FE971E012
:1042800081ED93E00E944B0D63EA71E087ED93E0CE
:104290000E944B0D6AEA71E08DED93E00E944B0D98
:1042A00061EB71E083EE93E00E944B0D67EB71E0F0
:1042B00089EE93E00E944B0D6DEB71E083EB93E090
:1042C0000E944B0D66EC71E089EB93E00E944B0D70
:1042D0006DEC71E08FEB93E00E944B0D68ED71E0A7
:1042E00085EC93E00E944B0D65EE71E087EA93E068
:1042F0000E944B0D6AEE71E08DEA93E00E944B0D37
:10430000E9E6F3E01382128220E830E0358324836B
:1043100080E290E097838683318720879387828726
:10432000158A158614861786168681E0848B2FEFF2
:104330003FEF338B228B318B208B868B178A118E2C
:10434000108E84E491E091838083138E128ED58F3A
:10435000C48F178E168E8FEF83A384A385A386A3A5
:1043600084E087A380E584AB15AADF91CF910895FF
:104370008F929F92AF92BF92CF92DF92EF92FF9275
:10438000CF93DF93EC01688179818A819B816115EC
:1043900071058105910521F464E279ED8BE597E0E3
:1043A0002DE133EF41E050E00E945A2249015A01C9
:1043B0009B01AC01A7EAB1E40E9479226B017C0168
:1043C000ACEEB4EFA50194010E948722DC01CB0181
:1043D0008C0D9D1DAE1DBF1DB7FF03C00197A10928
:1043E000B04888839983AA83BB83BC01CD019F77A2
:1043F000DF91CF91FF90EF90DF90CF90BF90AF9083
:104400009F908F9008958F929F92AF92BF92CF927C
:10441000DF92EF92FF9260911201709113018091EF
:10442000140190911501611571058105910521F423
:1044300064E279ED8BE597E02DE133EF41E050E068
:104440000E945A2249015A019B01AC01A7EAB1E43A
:104450000E9479226B017C01ACEEB4EFA5019401BE
:104460000E948722DC01CB018C0D9D1DAE1DBF1D5E
:10447000B7FF03C00197A109B04880931201909340
:104480001301A0931401B0931501BC01CD019F77D6
:10449000FF90EF90DF90CF90BF90AF909F908F9064
:1044A0000895609312017093130180931401909307
:1044B00015010895052E97FB1EF400940E947122A9
:1044C00057FD07D00E94C32207FC03D04EF40C9482
:1044D000712250954095309521953F4F4F4F5F4F3A
:1044E000089590958095709561957F4F8F4F9F4F60
:1044F00008950E94E522A59F900DB49F900DA49F62
:10450000800D911D11240895B7FF0C9479220E940B
:104510007922821B930B08952F923F924F925F92C4
:104520006F927F928F929F92AF92BF92CF92DF92C3
:10453000EF92FF920F931F93CF93DF93CDB7DEB728
:10454000CA1BDB0B0FB6F894DEBF0FBECDBF0994BC
:104550002A88398848885F846E847D848C849B8413
:10456000AA84B984C884DF80EE80FD800C811B8121
:10457000AA81B981CE0FD11D0FB6F894DEBF0FBE50
:10458000CDBFED010895A1E21A2EAA1BBB1BFD01B0
:104590000DC0AA1FBB1FEE1FFF1FA217B307E40722
:1045A000F50720F0A21BB30BE40BF50B661F771F7A
:1045B000881F991F1A9469F760957095809590955A
:1045C0009B01AC01BD01CF010895A29FB001B39F33
:1045D000C001A39F700D811D1124911DB29F700D0C
:1045E000811D1124911D0895EE0FFF1F0590F49178
:1045F000E02D09940F931F93CF93DF9382309105A1
:1046000010F482E090E0E091FD03F091FE0320E0E1
:1046100030E0A0E0B0E0309719F140815181028193
:10462000138148175907C8F08417950769F4109744
:1046300031F012960C93129713961C9327C0009397
:10464000FD031093FE0322C02115310519F0421716
:10465000530718F49A01BD01EF01DF01F801DBCF28
:1046600021153105F9F0281B390B2430310580F470
:104670008A819B816115710521F0FB0193838283FF
:1046800004C09093FE038093FD03FE01329644C064
:10469000FE01E20FF31F8193919322503109398378
:1046A00028833AC02091FB033091FC03232B41F473
:1046B00020911801309119013093FC032093FB03E2
:1046C00020911601309117012115310541F42DB7C4
:1046D0003EB740911A0150911B01241B350BE0910C
:1046E000FB03F091FC03E217F307A0F42E1B3F0B32
:1046F0002817390778F0AC014E5F5F4F2417350754
:1047000048F04E0F5F1F5093FC034093FB038193CF
:10471000919302C0E0E0F0E0CF01DF91CF911F91D3
:104720000F910895CF93DF93009709F481C0FC01A6
:10473000329713821282A091FD03B091FE0310976D
:1047400081F420813181820F931F2091FB033091EE
:10475000FC032817390751F5F093FC03E093FB03A2
:1047600067C0ED0120E030E0CE17DF0740F44A815A
:104770005B819E0141155105F1F0EA01F5CFD3832C
:10478000C28340815181840F951FC817D90759F4FE
:1047900088819981840F951F0296918380838A81F5
:1047A0009B81938382832115310529F4F093FE03C5
:1047B000E093FD033DC0E901FB83EA8349915991F0
:1047C000C40FD51FEC17FD0761F480819181840F20
:1047D000951F0296E90199838883828193819B8347
:1047E0008A83E0E0F0E012968D919C9113970097F8
:1047F00019F0FD01DC01F7CF8D919C9111979D017E
:104800002E5F3F4F820F931F2091FB033091FC03DB
:104810002817390769F4309729F41092FE03109293
:10482000FD0302C013821282B093FC03A093FB032A
:10483000DF91CF910895A0E0B0E0E1E2F4E20C94C2
:104840009022EC01009721F4CB010E94FA22B4C01F
:10485000FC01E60FF71F9C0122503109E217F30714
:1048600008F4A8C0D9010D911C91119706171707DC
:10487000B0F00530110508F49BC0C80104978617F5
:10488000970708F495C002501109061B170B0193F6
:1048900011936D937C93CF010E94922389C05B0199
:1048A000A01AB10A4C01800E911EA091FD03B09197
:1048B000FE03612C712CE12CF12C109709F446C0F9
:1048C0008D919C911197A815B905B1F56C0142E045
:1048D000C40ED11CCA14DB0478F14C018A189B0861
:1048E000640142E0C40ED11C1296BC90129713963C
:1048F000AC91B5E0CB16D10440F0B282A383918293
:104900008082D9016D937C9309C00E5F1F4F800F89
:10491000911FF90191838083EB2DFA2FE114F104AB
:1049200031F0D7011396FC93EE93129741C0F093A8
:10493000FE03E093FD033CC06816790608F43C01D1
:104940007D0112960D90BC91A02DB7CF8091FB03F5
:104950009091FC0388169906E1F466167706C8F470
:104960008091160190911701009741F48DB79EB781
:1049700040911A0150911B01841B950BE817F90710
:10498000C8F4F093FC03E093FB03F90171836083A7
:104990000FC0CB010E94FA227C01009759F0A801B8
:1049A000BE010E94E624CE010E949223C70104C0EA
:1049B000CE0102C080E090E0CDB7DEB7EEE00C940F
:1049C000AC2281E090E0F8940C94FD24FB01DC0122
:1049D00002C001900D9241505040D8F70895DC017B
:1049E00001C06D9341505040E0F70895FB01DC0198
:1049F00001900D920020E1F7089515E0CBE4D5E099
:104A000004C0FE010E94F4222196CC34D107C9F7DC
:044A1000F894FFCF48
:104A140082060100000032000101000200010001D1
:104A24000000010000000000FF03800000000000FF
:104A340009067605A0055606D105AF05C305000095
:104A440000001007E306940AB706DB06C706B8069B
:104A540000000000260B7605940A930A3F07B70668
:104A6400DA09B209CE09C209E109B706FD07371010
:104A7400970ADB0AFB08DE08710812084D74473AEE
:104A8400204D6F6D6972000D0A004C696768743AB5
:104A9400204F4E004C696768743A204F46460056D2
:104AA400616C7565004D616E6120636F73740056AF
:104AB4006F6C00466F726D6174004F4E2F4F464607
:104AC400007265736574005072696E74005374618A
:104AD4006E64617264005061757065720046756C35
:104AE4006C204D6F6D697200506175706572204D58
:104AF4006F6D697200454153590048415244003E6C
:024B040020008F
:00000001FF
